{
  "contractName": "Cryptoart",
  "abi": [
    {
      "inputs": [
        {
          "internalType": "uint256",
          "name": "_percentageCut",
          "type": "uint256"
        },
        {
          "internalType": "string",
          "name": "_metaurl",
          "type": "string"
        }
      ],
      "stateMutability": "nonpayable",
      "type": "constructor"
    },
    {
      "anonymous": false,
      "inputs": [
        {
          "indexed": true,
          "internalType": "address",
          "name": "owner",
          "type": "address"
        },
        {
          "indexed": true,
          "internalType": "address",
          "name": "approved",
          "type": "address"
        },
        {
          "indexed": true,
          "internalType": "uint256",
          "name": "tokenId",
          "type": "uint256"
        }
      ],
      "name": "Approval",
      "type": "event"
    },
    {
      "anonymous": false,
      "inputs": [
        {
          "indexed": true,
          "internalType": "address",
          "name": "owner",
          "type": "address"
        },
        {
          "indexed": true,
          "internalType": "address",
          "name": "operator",
          "type": "address"
        },
        {
          "indexed": false,
          "internalType": "bool",
          "name": "approved",
          "type": "bool"
        }
      ],
      "name": "ApprovalForAll",
      "type": "event"
    },
    {
      "anonymous": false,
      "inputs": [
        {
          "indexed": true,
          "internalType": "address",
          "name": "previousOwner",
          "type": "address"
        },
        {
          "indexed": true,
          "internalType": "address",
          "name": "newOwner",
          "type": "address"
        }
      ],
      "name": "OwnershipTransferred",
      "type": "event"
    },
    {
      "anonymous": false,
      "inputs": [
        {
          "indexed": true,
          "internalType": "address",
          "name": "from",
          "type": "address"
        },
        {
          "indexed": true,
          "internalType": "address",
          "name": "to",
          "type": "address"
        },
        {
          "indexed": true,
          "internalType": "uint256",
          "name": "tokenId",
          "type": "uint256"
        }
      ],
      "name": "Transfer",
      "type": "event"
    },
    {
      "anonymous": false,
      "inputs": [
        {
          "indexed": true,
          "internalType": "uint256",
          "name": "tokenId",
          "type": "uint256"
        },
        {
          "indexed": true,
          "internalType": "address",
          "name": "stcl",
          "type": "address"
        },
        {
          "indexed": false,
          "internalType": "bool",
          "name": "isBid",
          "type": "bool"
        },
        {
          "indexed": false,
          "internalType": "uint256",
          "name": "close",
          "type": "uint256"
        },
        {
          "indexed": false,
          "internalType": "uint256",
          "name": "times",
          "type": "uint256"
        }
      ],
      "name": "tokenbid",
      "type": "event"
    },
    {
      "anonymous": false,
      "inputs": [
        {
          "indexed": true,
          "internalType": "uint256",
          "name": "tokenId",
          "type": "uint256"
        },
        {
          "indexed": true,
          "internalType": "address",
          "name": "newowner",
          "type": "address"
        },
        {
          "indexed": true,
          "internalType": "address",
          "name": "seller",
          "type": "address"
        },
        {
          "indexed": false,
          "internalType": "uint256",
          "name": "times",
          "type": "uint256"
        }
      ],
      "name": "tokenbought",
      "type": "event"
    },
    {
      "anonymous": false,
      "inputs": [
        {
          "indexed": true,
          "internalType": "uint256",
          "name": "tokenId",
          "type": "uint256"
        },
        {
          "indexed": true,
          "internalType": "address",
          "name": "tokenCreator",
          "type": "address"
        },
        {
          "indexed": false,
          "internalType": "uint256",
          "name": "tokenPrice",
          "type": "uint256"
        },
        {
          "indexed": false,
          "internalType": "uint256",
          "name": "times",
          "type": "uint256"
        },
        {
          "indexed": false,
          "internalType": "uint256",
          "name": "batchId",
          "type": "uint256"
        }
      ],
      "name": "tokencreated",
      "type": "event"
    },
    {
      "anonymous": false,
      "inputs": [
        {
          "indexed": true,
          "internalType": "uint256",
          "name": "tokenId",
          "type": "uint256"
        },
        {
          "indexed": true,
          "internalType": "address",
          "name": "seller",
          "type": "address"
        },
        {
          "indexed": false,
          "internalType": "uint256",
          "name": "sellPrice",
          "type": "uint256"
        },
        {
          "indexed": false,
          "internalType": "bool",
          "name": "isListed",
          "type": "bool"
        },
        {
          "indexed": false,
          "internalType": "uint256",
          "name": "times",
          "type": "uint256"
        }
      ],
      "name": "tokenputforsale",
      "type": "event"
    },
    {
      "inputs": [
        {
          "internalType": "uint256",
          "name": "",
          "type": "uint256"
        }
      ],
      "name": "Arts",
      "outputs": [
        {
          "internalType": "uint256",
          "name": "tokenIdentifier",
          "type": "uint256"
        },
        {
          "internalType": "string",
          "name": "tokenHash",
          "type": "string"
        },
        {
          "internalType": "address payable",
          "name": "tokenCreator",
          "type": "address"
        },
        {
          "internalType": "address payable",
          "name": "tokenOwner",
          "type": "address"
        },
        {
          "internalType": "bool",
          "name": "isSelling",
          "type": "bool"
        },
        {
          "internalType": "uint256",
          "name": "tokenPrice",
          "type": "uint256"
        },
        {
          "internalType": "uint256",
          "name": "tokenSellPrice",
          "type": "uint256"
        },
        {
          "internalType": "string",
          "name": "imgurl",
          "type": "string"
        },
        {
          "internalType": "string",
          "name": "tokenTitle",
          "type": "string"
        },
        {
          "components": [
            {
              "internalType": "uint256",
              "name": "memcount",
              "type": "uint256"
            },
            {
              "internalType": "address[]",
              "name": "allmem",
              "type": "address[]"
            },
            {
              "internalType": "uint256",
              "name": "panelprice",
              "type": "uint256"
            },
            {
              "internalType": "uint256",
              "name": "countcritic",
              "type": "uint256"
            }
          ],
          "internalType": "struct Cryptoart.Panel",
          "name": "panel",
          "type": "tuple"
        },
        {
          "components": [
            {
              "internalType": "address payable",
              "name": "bidder",
              "type": "address"
            },
            {
              "internalType": "uint256",
              "name": "bidprice",
              "type": "uint256"
            },
            {
              "internalType": "bool",
              "name": "isBidding",
              "type": "bool"
            }
          ],
          "internalType": "struct Cryptoart.Auction",
          "name": "auction",
          "type": "tuple"
        },
        {
          "internalType": "uint256",
          "name": "batchId",
          "type": "uint256"
        }
      ],
      "stateMutability": "view",
      "type": "function"
    },
    {
      "inputs": [
        {
          "internalType": "address",
          "name": "to",
          "type": "address"
        },
        {
          "internalType": "uint256",
          "name": "tokenId",
          "type": "uint256"
        }
      ],
      "name": "approve",
      "outputs": [],
      "stateMutability": "nonpayable",
      "type": "function"
    },
    {
      "inputs": [
        {
          "internalType": "address",
          "name": "owner",
          "type": "address"
        }
      ],
      "name": "balanceOf",
      "outputs": [
        {
          "internalType": "uint256",
          "name": "",
          "type": "uint256"
        }
      ],
      "stateMutability": "view",
      "type": "function"
    },
    {
      "inputs": [],
      "name": "baseURI",
      "outputs": [
        {
          "internalType": "string",
          "name": "",
          "type": "string"
        }
      ],
      "stateMutability": "view",
      "type": "function"
    },
    {
      "inputs": [],
      "name": "batchcounter",
      "outputs": [
        {
          "internalType": "uint256",
          "name": "",
          "type": "uint256"
        }
      ],
      "stateMutability": "view",
      "type": "function"
    },
    {
      "inputs": [
        {
          "internalType": "uint256",
          "name": "",
          "type": "uint256"
        }
      ],
      "name": "batches",
      "outputs": [
        {
          "internalType": "uint256",
          "name": "",
          "type": "uint256"
        }
      ],
      "stateMutability": "view",
      "type": "function"
    },
    {
      "inputs": [
        {
          "internalType": "uint256",
          "name": "tokenId",
          "type": "uint256"
        }
      ],
      "name": "getApproved",
      "outputs": [
        {
          "internalType": "address",
          "name": "",
          "type": "address"
        }
      ],
      "stateMutability": "view",
      "type": "function"
    },
    {
      "inputs": [
        {
          "internalType": "address",
          "name": "owner",
          "type": "address"
        },
        {
          "internalType": "address",
          "name": "operator",
          "type": "address"
        }
      ],
      "name": "isApprovedForAll",
      "outputs": [
        {
          "internalType": "bool",
          "name": "",
          "type": "bool"
        }
      ],
      "stateMutability": "view",
      "type": "function"
    },
    {
      "inputs": [],
      "name": "metaUrl",
      "outputs": [
        {
          "internalType": "string",
          "name": "",
          "type": "string"
        }
      ],
      "stateMutability": "view",
      "type": "function"
    },
    {
      "inputs": [],
      "name": "name",
      "outputs": [
        {
          "internalType": "string",
          "name": "",
          "type": "string"
        }
      ],
      "stateMutability": "view",
      "type": "function"
    },
    {
      "inputs": [],
      "name": "owner",
      "outputs": [
        {
          "internalType": "address",
          "name": "",
          "type": "address"
        }
      ],
      "stateMutability": "view",
      "type": "function"
    },
    {
      "inputs": [
        {
          "internalType": "uint256",
          "name": "tokenId",
          "type": "uint256"
        }
      ],
      "name": "ownerOf",
      "outputs": [
        {
          "internalType": "address",
          "name": "",
          "type": "address"
        }
      ],
      "stateMutability": "view",
      "type": "function"
    },
    {
      "inputs": [],
      "name": "percentageCut",
      "outputs": [
        {
          "internalType": "uint256",
          "name": "",
          "type": "uint256"
        }
      ],
      "stateMutability": "view",
      "type": "function"
    },
    {
      "inputs": [],
      "name": "renounceOwnership",
      "outputs": [],
      "stateMutability": "nonpayable",
      "type": "function"
    },
    {
      "inputs": [
        {
          "internalType": "address",
          "name": "from",
          "type": "address"
        },
        {
          "internalType": "address",
          "name": "to",
          "type": "address"
        },
        {
          "internalType": "uint256",
          "name": "tokenId",
          "type": "uint256"
        }
      ],
      "name": "safeTransferFrom",
      "outputs": [],
      "stateMutability": "nonpayable",
      "type": "function"
    },
    {
      "inputs": [
        {
          "internalType": "address",
          "name": "from",
          "type": "address"
        },
        {
          "internalType": "address",
          "name": "to",
          "type": "address"
        },
        {
          "internalType": "uint256",
          "name": "tokenId",
          "type": "uint256"
        },
        {
          "internalType": "bytes",
          "name": "_data",
          "type": "bytes"
        }
      ],
      "name": "safeTransferFrom",
      "outputs": [],
      "stateMutability": "nonpayable",
      "type": "function"
    },
    {
      "inputs": [
        {
          "internalType": "address",
          "name": "operator",
          "type": "address"
        },
        {
          "internalType": "bool",
          "name": "approved",
          "type": "bool"
        }
      ],
      "name": "setApprovalForAll",
      "outputs": [],
      "stateMutability": "nonpayable",
      "type": "function"
    },
    {
      "inputs": [
        {
          "internalType": "bytes4",
          "name": "interfaceId",
          "type": "bytes4"
        }
      ],
      "name": "supportsInterface",
      "outputs": [
        {
          "internalType": "bool",
          "name": "",
          "type": "bool"
        }
      ],
      "stateMutability": "view",
      "type": "function"
    },
    {
      "inputs": [],
      "name": "symbol",
      "outputs": [
        {
          "internalType": "string",
          "name": "",
          "type": "string"
        }
      ],
      "stateMutability": "view",
      "type": "function"
    },
    {
      "inputs": [
        {
          "internalType": "uint256",
          "name": "index",
          "type": "uint256"
        }
      ],
      "name": "tokenByIndex",
      "outputs": [
        {
          "internalType": "uint256",
          "name": "",
          "type": "uint256"
        }
      ],
      "stateMutability": "view",
      "type": "function"
    },
    {
      "inputs": [],
      "name": "tokenCount",
      "outputs": [
        {
          "internalType": "uint256",
          "name": "",
          "type": "uint256"
        }
      ],
      "stateMutability": "view",
      "type": "function"
    },
    {
      "inputs": [
        {
          "internalType": "address",
          "name": "owner",
          "type": "address"
        },
        {
          "internalType": "uint256",
          "name": "index",
          "type": "uint256"
        }
      ],
      "name": "tokenOfOwnerByIndex",
      "outputs": [
        {
          "internalType": "uint256",
          "name": "",
          "type": "uint256"
        }
      ],
      "stateMutability": "view",
      "type": "function"
    },
    {
      "inputs": [
        {
          "internalType": "uint256",
          "name": "tokenId",
          "type": "uint256"
        }
      ],
      "name": "tokenURI",
      "outputs": [
        {
          "internalType": "string",
          "name": "",
          "type": "string"
        }
      ],
      "stateMutability": "view",
      "type": "function"
    },
    {
      "inputs": [
        {
          "internalType": "address",
          "name": "",
          "type": "address"
        },
        {
          "internalType": "uint256",
          "name": "",
          "type": "uint256"
        }
      ],
      "name": "tokensByCreator",
      "outputs": [
        {
          "internalType": "uint256",
          "name": "tokenIdentifier",
          "type": "uint256"
        },
        {
          "internalType": "string",
          "name": "tokenHash",
          "type": "string"
        },
        {
          "internalType": "address payable",
          "name": "tokenCreator",
          "type": "address"
        },
        {
          "internalType": "address payable",
          "name": "tokenOwner",
          "type": "address"
        },
        {
          "internalType": "bool",
          "name": "isSelling",
          "type": "bool"
        },
        {
          "internalType": "uint256",
          "name": "tokenPrice",
          "type": "uint256"
        },
        {
          "internalType": "uint256",
          "name": "tokenSellPrice",
          "type": "uint256"
        },
        {
          "internalType": "string",
          "name": "imgurl",
          "type": "string"
        },
        {
          "internalType": "string",
          "name": "tokenTitle",
          "type": "string"
        },
        {
          "components": [
            {
              "internalType": "uint256",
              "name": "memcount",
              "type": "uint256"
            },
            {
              "internalType": "address[]",
              "name": "allmem",
              "type": "address[]"
            },
            {
              "internalType": "uint256",
              "name": "panelprice",
              "type": "uint256"
            },
            {
              "internalType": "uint256",
              "name": "countcritic",
              "type": "uint256"
            }
          ],
          "internalType": "struct Cryptoart.Panel",
          "name": "panel",
          "type": "tuple"
        },
        {
          "components": [
            {
              "internalType": "address payable",
              "name": "bidder",
              "type": "address"
            },
            {
              "internalType": "uint256",
              "name": "bidprice",
              "type": "uint256"
            },
            {
              "internalType": "bool",
              "name": "isBidding",
              "type": "bool"
            }
          ],
          "internalType": "struct Cryptoart.Auction",
          "name": "auction",
          "type": "tuple"
        },
        {
          "internalType": "uint256",
          "name": "batchId",
          "type": "uint256"
        }
      ],
      "stateMutability": "view",
      "type": "function"
    },
    {
      "inputs": [
        {
          "internalType": "address",
          "name": "",
          "type": "address"
        },
        {
          "internalType": "uint256",
          "name": "",
          "type": "uint256"
        }
      ],
      "name": "tokensByOwner",
      "outputs": [
        {
          "internalType": "uint256",
          "name": "tokenIdentifier",
          "type": "uint256"
        },
        {
          "internalType": "string",
          "name": "tokenHash",
          "type": "string"
        },
        {
          "internalType": "address payable",
          "name": "tokenCreator",
          "type": "address"
        },
        {
          "internalType": "address payable",
          "name": "tokenOwner",
          "type": "address"
        },
        {
          "internalType": "bool",
          "name": "isSelling",
          "type": "bool"
        },
        {
          "internalType": "uint256",
          "name": "tokenPrice",
          "type": "uint256"
        },
        {
          "internalType": "uint256",
          "name": "tokenSellPrice",
          "type": "uint256"
        },
        {
          "internalType": "string",
          "name": "imgurl",
          "type": "string"
        },
        {
          "internalType": "string",
          "name": "tokenTitle",
          "type": "string"
        },
        {
          "components": [
            {
              "internalType": "uint256",
              "name": "memcount",
              "type": "uint256"
            },
            {
              "internalType": "address[]",
              "name": "allmem",
              "type": "address[]"
            },
            {
              "internalType": "uint256",
              "name": "panelprice",
              "type": "uint256"
            },
            {
              "internalType": "uint256",
              "name": "countcritic",
              "type": "uint256"
            }
          ],
          "internalType": "struct Cryptoart.Panel",
          "name": "panel",
          "type": "tuple"
        },
        {
          "components": [
            {
              "internalType": "address payable",
              "name": "bidder",
              "type": "address"
            },
            {
              "internalType": "uint256",
              "name": "bidprice",
              "type": "uint256"
            },
            {
              "internalType": "bool",
              "name": "isBidding",
              "type": "bool"
            }
          ],
          "internalType": "struct Cryptoart.Auction",
          "name": "auction",
          "type": "tuple"
        },
        {
          "internalType": "uint256",
          "name": "batchId",
          "type": "uint256"
        }
      ],
      "stateMutability": "view",
      "type": "function"
    },
    {
      "inputs": [],
      "name": "totalSupply",
      "outputs": [
        {
          "internalType": "uint256",
          "name": "",
          "type": "uint256"
        }
      ],
      "stateMutability": "view",
      "type": "function"
    },
    {
      "inputs": [],
      "name": "totalbal",
      "outputs": [
        {
          "internalType": "uint256",
          "name": "",
          "type": "uint256"
        }
      ],
      "stateMutability": "view",
      "type": "function"
    },
    {
      "inputs": [
        {
          "internalType": "address",
          "name": "from",
          "type": "address"
        },
        {
          "internalType": "address",
          "name": "to",
          "type": "address"
        },
        {
          "internalType": "uint256",
          "name": "tokenId",
          "type": "uint256"
        }
      ],
      "name": "transferFrom",
      "outputs": [],
      "stateMutability": "nonpayable",
      "type": "function"
    },
    {
      "inputs": [
        {
          "internalType": "address",
          "name": "newOwner",
          "type": "address"
        }
      ],
      "name": "transferOwnership",
      "outputs": [],
      "stateMutability": "nonpayable",
      "type": "function"
    },
    {
      "inputs": [
        {
          "internalType": "uint256",
          "name": "_percent",
          "type": "uint256"
        }
      ],
      "name": "setPercentCut",
      "outputs": [],
      "stateMutability": "nonpayable",
      "type": "function"
    },
    {
      "inputs": [
        {
          "internalType": "string",
          "name": "_url",
          "type": "string"
        }
      ],
      "name": "setMetaUrl",
      "outputs": [],
      "stateMutability": "nonpayable",
      "type": "function"
    },
    {
      "inputs": [
        {
          "internalType": "string",
          "name": "_tokenHash",
          "type": "string"
        },
        {
          "internalType": "string",
          "name": "_tokenTitle",
          "type": "string"
        },
        {
          "internalType": "uint256",
          "name": "_tokenPrice",
          "type": "uint256"
        },
        {
          "internalType": "string",
          "name": "_imgurl",
          "type": "string"
        },
        {
          "internalType": "uint256",
          "name": "_nos",
          "type": "uint256"
        }
      ],
      "name": "batchCreator",
      "outputs": [],
      "stateMutability": "nonpayable",
      "type": "function"
    },
    {
      "inputs": [
        {
          "internalType": "string",
          "name": "_tokenHash",
          "type": "string"
        },
        {
          "internalType": "string",
          "name": "_tokenTitle",
          "type": "string"
        },
        {
          "internalType": "uint256",
          "name": "_tokenPrice",
          "type": "uint256"
        },
        {
          "internalType": "string",
          "name": "_imgurl",
          "type": "string"
        },
        {
          "internalType": "uint256",
          "name": "_batchid",
          "type": "uint256"
        }
      ],
      "name": "create",
      "outputs": [
        {
          "internalType": "uint256",
          "name": "",
          "type": "uint256"
        }
      ],
      "stateMutability": "nonpayable",
      "type": "function"
    },
    {
      "inputs": [
        {
          "internalType": "uint256",
          "name": "_tokenId",
          "type": "uint256"
        },
        {
          "internalType": "uint256",
          "name": "_memcount",
          "type": "uint256"
        },
        {
          "internalType": "address[]",
          "name": "_allmem",
          "type": "address[]"
        }
      ],
      "name": "addtoGallery",
      "outputs": [],
      "stateMutability": "nonpayable",
      "type": "function"
    },
    {
      "inputs": [
        {
          "internalType": "uint256",
          "name": "_tokenId",
          "type": "uint256"
        },
        {
          "internalType": "uint256",
          "name": "_criticprice",
          "type": "uint256"
        }
      ],
      "name": "addCriticPrice",
      "outputs": [],
      "stateMutability": "nonpayable",
      "type": "function"
    },
    {
      "inputs": [
        {
          "internalType": "uint256",
          "name": "_tokenId",
          "type": "uint256"
        },
        {
          "internalType": "uint256",
          "name": "_sellprice",
          "type": "uint256"
        }
      ],
      "name": "putForSale",
      "outputs": [],
      "stateMutability": "nonpayable",
      "type": "function"
    },
    {
      "inputs": [
        {
          "internalType": "uint256",
          "name": "_tokenId",
          "type": "uint256"
        }
      ],
      "name": "deSale",
      "outputs": [],
      "stateMutability": "nonpayable",
      "type": "function"
    },
    {
      "inputs": [
        {
          "internalType": "uint256",
          "name": "_tokenId",
          "type": "uint256"
        },
        {
          "internalType": "address payable",
          "name": "addr",
          "type": "address"
        }
      ],
      "name": "giftToken",
      "outputs": [
        {
          "internalType": "bool",
          "name": "",
          "type": "bool"
        }
      ],
      "stateMutability": "payable",
      "type": "function"
    },
    {
      "inputs": [
        {
          "internalType": "uint256",
          "name": "_tokenId",
          "type": "uint256"
        }
      ],
      "name": "buyToken",
      "outputs": [
        {
          "internalType": "bool",
          "name": "",
          "type": "bool"
        }
      ],
      "stateMutability": "payable",
      "type": "function"
    },
    {
      "inputs": [
        {
          "internalType": "uint256",
          "name": "_tokenId",
          "type": "uint256"
        }
      ],
      "name": "startbid",
      "outputs": [],
      "stateMutability": "nonpayable",
      "type": "function"
    },
    {
      "inputs": [
        {
          "internalType": "uint256",
          "name": "_tokenId",
          "type": "uint256"
        }
      ],
      "name": "addBid",
      "outputs": [],
      "stateMutability": "payable",
      "type": "function"
    },
    {
      "inputs": [
        {
          "internalType": "uint256",
          "name": "_tokenId",
          "type": "uint256"
        }
      ],
      "name": "closeBidOwner",
      "outputs": [],
      "stateMutability": "nonpayable",
      "type": "function"
    },
    {
      "inputs": [
        {
          "internalType": "uint256",
          "name": "_tokenId",
          "type": "uint256"
        }
      ],
      "name": "closeBid",
      "outputs": [],
      "stateMutability": "nonpayable",
      "type": "function"
    },
    {
      "inputs": [],
      "name": "withdrawBalance",
      "outputs": [],
      "stateMutability": "payable",
      "type": "function"
    },
    {
      "inputs": [],
      "name": "FinalWithdrawBal",
      "outputs": [],
      "stateMutability": "payable",
      "type": "function"
    }
  ],
  "bytecode": "0x60806040526000600c556000600d556000600e553480156200002057600080fd5b5060405162009e8538038062009e8583398181016040528101906200004691906200046f565b6040518060400160405280600881526020017f53757065724172740000000000000000000000000000000000000000000000008152506040518060400160405280600881526020017f5355504552415254000000000000000000000000000000000000000000000000815250620000ca6301ffc9a760e01b6200021f60201b60201c565b8160069080519060200190620000e292919062000330565b508060079080519060200190620000fb92919062000330565b50620001146380ac58cd60e01b6200021f60201b60201c565b6200012c635b5e139f60e01b6200021f60201b60201c565b6200014463780e9d6360e01b6200021f60201b60201c565b50506000620001586200032860201b60201c565b905080600a60006101000a81548173ffffffffffffffffffffffffffffffffffffffff021916908373ffffffffffffffffffffffffffffffffffffffff1602179055508073ffffffffffffffffffffffffffffffffffffffff16600073ffffffffffffffffffffffffffffffffffffffff167f8be0079c531659141344cd1fd0a4f28419497f9722a3daafe3b4186f6b6457e060405160405180910390a35081600b8190555080600f90805190602001906200021692919062000330565b5050506200058c565b63ffffffff60e01b817bffffffffffffffffffffffffffffffffffffffffffffffffffffffff19161415620002bc576040517f08c379a000000000000000000000000000000000000000000000000000000000815260040180806020018281038252601c8152602001807f4552433136353a20696e76616c696420696e746572666163652069640000000081525060200191505060405180910390fd5b6001600080837bffffffffffffffffffffffffffffffffffffffffffffffffffffffff19167bffffffffffffffffffffffffffffffffffffffffffffffffffffffff1916815260200190815260200160002060006101000a81548160ff02191690831515021790555050565b600033905090565b828054600181600116156101000203166002900490600052602060002090601f016020900481019282620003685760008555620003b4565b82601f106200038357805160ff1916838001178555620003b4565b82800160010185558215620003b4579182015b82811115620003b357825182559160200191906001019062000396565b5b509050620003c39190620003c7565b5090565b5b80821115620003e2576000816000905550600101620003c8565b5090565b6000620003fd620003f784620004fd565b620004c9565b9050828152602081018484840111156200041657600080fd5b620004238482856200053a565b509392505050565b600082601f8301126200043d57600080fd5b81516200044f848260208601620003e6565b91505092915050565b600081519050620004698162000572565b92915050565b600080604083850312156200048357600080fd5b6000620004938582860162000458565b925050602083015167ffffffffffffffff811115620004b157600080fd5b620004bf858286016200042b565b9150509250929050565b6000604051905081810181811067ffffffffffffffff82111715620004f357620004f262000570565b5b8060405250919050565b600067ffffffffffffffff8211156200051b576200051a62000570565b5b601f19601f8301169050602081019050919050565b6000819050919050565b60005b838110156200055a5780820151818401526020810190506200053d565b838111156200056a576000848401525b50505050565bfe5b6200057d8162000530565b81146200058957600080fd5b50565b6198e9806200059c6000396000f3fe6080604052600436106102725760003560e01c80636352211e1161014f578063a9cc60a9116100c1578063e19d26791161007a578063e19d267914610988578063e985e9c5146109b3578063f2fde38b146109f0578063f4f4224614610a19578063f6a8981014610a44578063fc4d3e4614610a6d57610272565b8063a9cc60a91461084b578063b32c4d8d14610874578063b5b00307146108b1578063b88d4fde146108da578063c87b56dd14610903578063d80d03a21461094057610272565b80638247350b116101135780638247350b1461072e5780638da5cb5b1461077657806395d89b41146107a15780639f181b5e146107cc578063a04482e9146107f7578063a22cb4651461082257610272565b80636352211e1461062a578063653db54a146106675780636c0360eb146106af57806370a08231146106da578063715018a61461071757610272565b80632f745c59116101e85780634580e23e116101ac5780634580e23e1461055757806347b22cfa146105805780634be6ddc0146105a95780634f6ccce7146105b357806358beb7c1146105f05780635fd8c7101461062057610272565b80632f745c59146104625780633cd76be21461049f5780633e6cd60f146104c857806342842e0e146104f1578063443c8b4e1461051a57610272565b80630dfc281a1161023a5780630dfc281a1461037057806310c753581461039957806314b0e266146103c257806318160ddd146103de57806323b872dd146104095780632d296bf11461043257610272565b806301ffc9a71461027757806306fdde03146102b4578063081812fc146102df578063095ea7b31461031c5780630a05f5a514610345575b600080fd5b34801561028357600080fd5b5061029e60048036038101906102999190618cf3565b610a96565b6040516102ab919061913d565b60405180910390f35b3480156102c057600080fd5b506102c9610afd565b6040516102d69190619234565b60405180910390f35b3480156102eb57600080fd5b5061030660048036038101906103019190618e1c565b610b9f565b6040516103139190619122565b60405180910390f35b34801561032857600080fd5b50610343600480360381019061033e9190618cb7565b610c3a565b005b34801561035157600080fd5b5061035a610d7e565b6040516103679190619256565b60405180910390f35b34801561037c57600080fd5b5061039760048036038101906103929190618e1c565b610d84565b005b3480156103a557600080fd5b506103c060048036038101906103bb9190618d1c565b611b92565b005b6103dc60048036038101906103d79190618e1c565b611bac565b005b3480156103ea57600080fd5b506103f36123b6565b6040516104009190619256565b60405180910390f35b34801561041557600080fd5b50610430600480360381019061042b9190618bb1565b6123c7565b005b61044c60048036038101906104479190618e1c565b61243d565b604051610459919061913d565b60405180910390f35b34801561046e57600080fd5b5061048960048036038101906104849190618cb7565b612451565b6040516104969190619256565b60405180910390f35b3480156104ab57600080fd5b506104c660048036038101906104c19190618e81565b6124ac565b005b3480156104d457600080fd5b506104ef60048036038101906104ea9190618e1c565b61254e565b005b3480156104fd57600080fd5b5061051860048036038101906105139190618bb1565b6125d8565b005b34801561052657600080fd5b50610541600480360381019061053c9190618d5d565b6125f8565b60405161054e9190619256565b60405180910390f35b34801561056357600080fd5b5061057e60048036038101906105799190618e81565b612e0a565b005b34801561058c57600080fd5b506105a760048036038101906105a29190618e1c565b61353e565b005b6105b16135e0565b005b3480156105bf57600080fd5b506105da60048036038101906105d59190618e1c565b613710565b6040516105e79190619256565b60405180910390f35b61060a60048036038101906106059190618e45565b613733565b604051610617919061913d565b60405180910390f35b610628613748565b005b34801561063657600080fd5b50610651600480360381019061064c9190618e1c565b61385d565b60405161065e9190619122565b60405180910390f35b34801561067357600080fd5b5061068e60048036038101906106899190618cb7565b613894565b6040516106a69c9b9a999897969594939291906192a8565b60405180910390f35b3480156106bb57600080fd5b506106c4613c61565b6040516106d19190619234565b60405180910390f35b3480156106e657600080fd5b5061070160048036038101906106fc9190618b4c565b613d03565b60405161070e9190619256565b60405180910390f35b34801561072357600080fd5b5061072c613dd8565b005b34801561073a57600080fd5b5061075560048036038101906107509190618e1c565b613f63565b60405161076d9c9b9a999897969594939291906192a8565b60405180910390f35b34801561078257600080fd5b5061078b614313565b6040516107989190619122565b60405180910390f35b3480156107ad57600080fd5b506107b661433d565b6040516107c39190619234565b60405180910390f35b3480156107d857600080fd5b506107e16143df565b6040516107ee9190619256565b60405180910390f35b34801561080357600080fd5b5061080c6143e5565b6040516108199190619234565b60405180910390f35b34801561082e57600080fd5b5061084960048036038101906108449190618c7b565b614483565b005b34801561085757600080fd5b50610872600480360381019061086d9190618d5d565b614639565b005b34801561088057600080fd5b5061089b60048036038101906108969190618e1c565b614695565b6040516108a89190619256565b60405180910390f35b3480156108bd57600080fd5b506108d860048036038101906108d39190618e1c565b6146ad565b005b3480156108e657600080fd5b5061090160048036038101906108fc9190618c00565b6146b7565b005b34801561090f57600080fd5b5061092a60048036038101906109259190618e1c565b61472f565b6040516109379190619234565b60405180910390f35b34801561094c57600080fd5b5061096760048036038101906109629190618cb7565b614a18565b60405161097f9c9b9a999897969594939291906192a8565b60405180910390f35b34801561099457600080fd5b5061099d614de5565b6040516109aa9190619256565b60405180910390f35b3480156109bf57600080fd5b506109da60048036038101906109d59190618b75565b614deb565b6040516109e7919061913d565b60405180910390f35b3480156109fc57600080fd5b50610a176004803603810190610a129190618b4c565b614e7f565b005b348015610a2557600080fd5b50610a2e61508f565b604051610a3b9190619256565b60405180910390f35b348015610a5057600080fd5b50610a6b6004803603810190610a669190618e1c565b615095565b005b348015610a7957600080fd5b50610a946004803603810190610a8f9190618ebd565b615827565b005b6000806000837bffffffffffffffffffffffffffffffffffffffffffffffffffffffff19167bffffffffffffffffffffffffffffffffffffffffffffffffffffffff1916815260200190815260200160002060009054906101000a900460ff169050919050565b606060068054600181600116156101000203166002900480601f016020809104026020016040519081016040528092919081815260200182805460018160011615610100020316600290048015610b955780601f10610b6a57610100808354040283529160200191610b95565b820191906000526020600020905b815481529060010190602001808311610b7857829003601f168201915b5050505050905090565b6000610baa82615edd565b610bff576040517f08c379a000000000000000000000000000000000000000000000000000000000815260040180806020018281038252602c8152602001806197de602c913960400191505060405180910390fd5b6004600083815260200190815260200160002060009054906101000a900473ffffffffffffffffffffffffffffffffffffffff169050919050565b6000610c458261385d565b90508073ffffffffffffffffffffffffffffffffffffffff168373ffffffffffffffffffffffffffffffffffffffff161415610ccc576040517f08c379a00000000000000000000000000000000000000000000000000000000081526004018080602001828103825260218152602001806198626021913960400191505060405180910390fd5b8073ffffffffffffffffffffffffffffffffffffffff16610ceb615efa565b73ffffffffffffffffffffffffffffffffffffffff161480610d1a5750610d1981610d14615efa565b614deb565b5b610d6f576040517f08c379a00000000000000000000000000000000000000000000000000000000081526004018080602001828103825260388152602001806197106038913960400191505060405180910390fd5b610d798383615f02565b505050565b600e5481565b6000601160008381526020019081526020016000206040518061018001604052908160008201548152602001600182018054600181600116156101000203166002900480601f016020809104026020016040519081016040528092919081815260200182805460018160011615610100020316600290048015610e485780601f10610e1d57610100808354040283529160200191610e48565b820191906000526020600020905b815481529060010190602001808311610e2b57829003601f168201915b505050505081526020016002820160009054906101000a900473ffffffffffffffffffffffffffffffffffffffff1673ffffffffffffffffffffffffffffffffffffffff1673ffffffffffffffffffffffffffffffffffffffff1681526020016003820160009054906101000a900473ffffffffffffffffffffffffffffffffffffffff1673ffffffffffffffffffffffffffffffffffffffff1673ffffffffffffffffffffffffffffffffffffffff1681526020016003820160149054906101000a900460ff161515151581526020016004820154815260200160058201548152602001600682018054600181600116156101000203166002900480601f016020809104026020016040519081016040528092919081815260200182805460018160011615610100020316600290048015610fc55780601f10610f9a57610100808354040283529160200191610fc5565b820191906000526020600020905b815481529060010190602001808311610fa857829003601f168201915b50505050508152602001600782018054600181600116156101000203166002900480601f0160208091040260200160405190810160405280929190818152602001828054600181600116156101000203166002900480156110675780601f1061103c57610100808354040283529160200191611067565b820191906000526020600020905b81548152906001019060200180831161104a57829003601f168201915b5050505050815260200160088201604051806080016040529081600082015481526020016001820180548060200260200160405190810160405280929190818152602001828054801561110f57602002820191906000526020600020905b8160009054906101000a900473ffffffffffffffffffffffffffffffffffffffff1673ffffffffffffffffffffffffffffffffffffffff16815260200190600101908083116110c5575b50505050508152602001600282015481526020016003820154815250508152602001600c82016040518060600160405290816000820160009054906101000a900473ffffffffffffffffffffffffffffffffffffffff1673ffffffffffffffffffffffffffffffffffffffff1673ffffffffffffffffffffffffffffffffffffffff168152602001600182015481526020016002820160009054906101000a900460ff1615151515815250508152602001600f8201548152505090503373ffffffffffffffffffffffffffffffffffffffff16816060015173ffffffffffffffffffffffffffffffffffffffff16148061123f575061120c614313565b73ffffffffffffffffffffffffffffffffffffffff16816060015173ffffffffffffffffffffffffffffffffffffffff16145b61124857600080fd5b806101400151602001518160c0018181525050806011600084815260200190815260200160002060008201518160000155602082015181600101908051906020019061129592919061822c565b5060408201518160020160006101000a81548173ffffffffffffffffffffffffffffffffffffffff021916908373ffffffffffffffffffffffffffffffffffffffff16021790555060608201518160030160006101000a81548173ffffffffffffffffffffffffffffffffffffffff021916908373ffffffffffffffffffffffffffffffffffffffff16021790555060808201518160030160146101000a81548160ff02191690831515021790555060a0820151816004015560c0820151816005015560e082015181600601908051906020019061137492919061822c565b5061010082015181600701908051906020019061139292919061822c565b50610120820151816008016000820151816000015560208201518160010190805190602001906113c39291906182ba565b506040820151816002015560608201518160030155505061014082015181600c0160008201518160000160006101000a81548173ffffffffffffffffffffffffffffffffffffffff021916908373ffffffffffffffffffffffffffffffffffffffff1602179055506020820151816001015560408201518160020160006101000a81548160ff021916908315150217905550505061016082015181600f0155905050611482828261014001516000015183610140015160200151615fbb565b506000601160008481526020019081526020016000206040518061018001604052908160008201548152602001600182018054600181600116156101000203166002900480601f0160208091040260200160405190810160405280929190818152602001828054600181600116156101000203166002900480156115475780601f1061151c57610100808354040283529160200191611547565b820191906000526020600020905b81548152906001019060200180831161152a57829003601f168201915b505050505081526020016002820160009054906101000a900473ffffffffffffffffffffffffffffffffffffffff1673ffffffffffffffffffffffffffffffffffffffff1673ffffffffffffffffffffffffffffffffffffffff1681526020016003820160009054906101000a900473ffffffffffffffffffffffffffffffffffffffff1673ffffffffffffffffffffffffffffffffffffffff1673ffffffffffffffffffffffffffffffffffffffff1681526020016003820160149054906101000a900460ff161515151581526020016004820154815260200160058201548152602001600682018054600181600116156101000203166002900480601f0160208091040260200160405190810160405280929190818152602001828054600181600116156101000203166002900480156116c45780601f10611699576101008083540402835291602001916116c4565b820191906000526020600020905b8154815290600101906020018083116116a757829003601f168201915b50505050508152602001600782018054600181600116156101000203166002900480601f0160208091040260200160405190810160405280929190818152602001828054600181600116156101000203166002900480156117665780601f1061173b57610100808354040283529160200191611766565b820191906000526020600020905b81548152906001019060200180831161174957829003601f168201915b5050505050815260200160088201604051806080016040529081600082015481526020016001820180548060200260200160405190810160405280929190818152602001828054801561180e57602002820191906000526020600020905b8160009054906101000a900473ffffffffffffffffffffffffffffffffffffffff1673ffffffffffffffffffffffffffffffffffffffff16815260200190600101908083116117c4575b50505050508152602001600282015481526020016003820154815250508152602001600c82016040518060600160405290816000820160009054906101000a900473ffffffffffffffffffffffffffffffffffffffff1673ffffffffffffffffffffffffffffffffffffffff1673ffffffffffffffffffffffffffffffffffffffff168152602001600182015481526020016002820160009054906101000a900460ff1615151515815250508152602001600f8201548152505090506000816101400151604001901515908115158152505060008161014001516000019073ffffffffffffffffffffffffffffffffffffffff16908173ffffffffffffffffffffffffffffffffffffffff168152505060008161014001516020018181525050806011600085815260200190815260200160002060008201518160000155602082015181600101908051906020019061196892919061822c565b5060408201518160020160006101000a81548173ffffffffffffffffffffffffffffffffffffffff021916908373ffffffffffffffffffffffffffffffffffffffff16021790555060608201518160030160006101000a81548173ffffffffffffffffffffffffffffffffffffffff021916908373ffffffffffffffffffffffffffffffffffffffff16021790555060808201518160030160146101000a81548160ff02191690831515021790555060a0820151816004015560c0820151816005015560e0820151816006019080519060200190611a4792919061822c565b50610100820151816007019080519060200190611a6592919061822c565b5061012082015181600801600082015181600001556020820151816001019080519060200190611a969291906182ba565b506040820151816002015560608201518160030155505061014082015181600c0160008201518160000160006101000a81548173ffffffffffffffffffffffffffffffffffffffff021916908373ffffffffffffffffffffffffffffffffffffffff1602179055506020820151816001015560408201518160020160006101000a81548160ff021916908315150217905550505061016082015181600f01559050503373ffffffffffffffffffffffffffffffffffffffff16837f6148d41e8dc5e4398599ae4cc7ac255e6fb97b2e57e9cec6f8e7a7562f0ea8916000600142604051611b859392919061918f565b60405180910390a3505050565b80600f9080519060200190611ba892919061822c565b5050565b6000601160008381526020019081526020016000206040518061018001604052908160008201548152602001600182018054600181600116156101000203166002900480601f016020809104026020016040519081016040528092919081815260200182805460018160011615610100020316600290048015611c705780601f10611c4557610100808354040283529160200191611c70565b820191906000526020600020905b815481529060010190602001808311611c5357829003601f168201915b505050505081526020016002820160009054906101000a900473ffffffffffffffffffffffffffffffffffffffff1673ffffffffffffffffffffffffffffffffffffffff1673ffffffffffffffffffffffffffffffffffffffff1681526020016003820160009054906101000a900473ffffffffffffffffffffffffffffffffffffffff1673ffffffffffffffffffffffffffffffffffffffff1673ffffffffffffffffffffffffffffffffffffffff1681526020016003820160149054906101000a900460ff161515151581526020016004820154815260200160058201548152602001600682018054600181600116156101000203166002900480601f016020809104026020016040519081016040528092919081815260200182805460018160011615610100020316600290048015611ded5780601f10611dc257610100808354040283529160200191611ded565b820191906000526020600020905b815481529060010190602001808311611dd057829003601f168201915b50505050508152602001600782018054600181600116156101000203166002900480601f016020809104026020016040519081016040528092919081815260200182805460018160011615610100020316600290048015611e8f5780601f10611e6457610100808354040283529160200191611e8f565b820191906000526020600020905b815481529060010190602001808311611e7257829003601f168201915b50505050508152602001600882016040518060800160405290816000820154815260200160018201805480602002602001604051908101604052809291908181526020018280548015611f3757602002820191906000526020600020905b8160009054906101000a900473ffffffffffffffffffffffffffffffffffffffff1673ffffffffffffffffffffffffffffffffffffffff1681526020019060010190808311611eed575b50505050508152602001600282015481526020016003820154815250508152602001600c82016040518060600160405290816000820160009054906101000a900473ffffffffffffffffffffffffffffffffffffffff1673ffffffffffffffffffffffffffffffffffffffff1673ffffffffffffffffffffffffffffffffffffffff168152602001600182015481526020016002820160009054906101000a900460ff1615151515815250508152602001600f82015481525050905080610140015160200151341161200857600080fd5b600073ffffffffffffffffffffffffffffffffffffffff168161014001516000015173ffffffffffffffffffffffffffffffffffffffff16141561210257338161014001516000019073ffffffffffffffffffffffffffffffffffffffff16908173ffffffffffffffffffffffffffffffffffffffff1681525050348161014001516020018181525050600181610140015160400190151590811515815250503373ffffffffffffffffffffffffffffffffffffffff16827f6148d41e8dc5e4398599ae4cc7ac255e6fb97b2e57e9cec6f8e7a7562f0ea89160016000426040516120f593929190619158565b60405180910390a36121a8565b8061014001516000015173ffffffffffffffffffffffffffffffffffffffff166108fc826101400151602001519081150290604051600060405180830381858888f1935050505015801561215a573d6000803e3d6000fd5b50338161014001516000019073ffffffffffffffffffffffffffffffffffffffff16908173ffffffffffffffffffffffffffffffffffffffff16815250503481610140015160200181815250505b80601160008481526020019081526020016000206000820151816000015560208201518160010190805190602001906121e292919061822c565b5060408201518160020160006101000a81548173ffffffffffffffffffffffffffffffffffffffff021916908373ffffffffffffffffffffffffffffffffffffffff16021790555060608201518160030160006101000a81548173ffffffffffffffffffffffffffffffffffffffff021916908373ffffffffffffffffffffffffffffffffffffffff16021790555060808201518160030160146101000a81548160ff02191690831515021790555060a0820151816004015560c0820151816005015560e08201518160060190805190602001906122c192919061822c565b506101008201518160070190805190602001906122df92919061822c565b50610120820151816008016000820151816000015560208201518160010190805190602001906123109291906182ba565b506040820151816002015560608201518160030155505061014082015181600c0160008201518160000160006101000a81548173ffffffffffffffffffffffffffffffffffffffff021916908373ffffffffffffffffffffffffffffffffffffffff1602179055506020820151816001015560408201518160020160006101000a81548160ff021916908315150217905550505061016082015181600f01559050505050565b60006123c26002616d7e565b905090565b6123d86123d2615efa565b82616d93565b61242d576040517f08c379a00000000000000000000000000000000000000000000000000000000081526004018080602001828103825260318152602001806198836031913960400191505060405180910390fd5b612438838383616e87565b505050565b600061244a823334615fbb565b9050919050565b60006124a482600160008673ffffffffffffffffffffffffffffffffffffffff1673ffffffffffffffffffffffffffffffffffffffff1681526020019081526020016000206170ca90919063ffffffff16565b905092915050565b60016011600084815260200190815260200160002060030160146101000a81548160ff0219169083151502179055508060116000848152602001908152602001600020600501819055503373ffffffffffffffffffffffffffffffffffffffff16827f87d56c3b66c22271c2352d654ec8dfaf0bdb423b45e66c644c51a5e9dd38f5c58360014260405161254293929190619271565b60405180910390a35050565b600160116000838152602001908152602001600020600c0160020160006101000a81548160ff0219169083151502179055503373ffffffffffffffffffffffffffffffffffffffff16817f6148d41e8dc5e4398599ae4cc7ac255e6fb97b2e57e9cec6f8e7a7562f0ea89160016000426040516125cd93929190619158565b60405180910390a350565b6125f3838383604051806020016040528060008152506146b7565b505050565b6000600d60008154809291906001019190505550612614618344565b600d5481600001818152505086816020018190525033816040019073ffffffffffffffffffffffffffffffffffffffff16908173ffffffffffffffffffffffffffffffffffffffff168152505033816060019073ffffffffffffffffffffffffffffffffffffffff16908173ffffffffffffffffffffffffffffffffffffffff16815250506000816080019015159081151581525050848160a0018181525050838160e001819052508581610100018190525082816101600181815250508060116000600d54815260200190815260200160002060008201518160000155602082015181600101908051906020019061270e92919061822c565b5060408201518160020160006101000a81548173ffffffffffffffffffffffffffffffffffffffff021916908373ffffffffffffffffffffffffffffffffffffffff16021790555060608201518160030160006101000a81548173ffffffffffffffffffffffffffffffffffffffff021916908373ffffffffffffffffffffffffffffffffffffffff16021790555060808201518160030160146101000a81548160ff02191690831515021790555060a0820151816004015560c0820151816005015560e08201518160060190805190602001906127ed92919061822c565b5061010082015181600701908051906020019061280b92919061822c565b506101208201518160080160008201518160000155602082015181600101908051906020019061283c9291906182ba565b506040820151816002015560608201518160030155505061014082015181600c0160008201518160000160006101000a81548173ffffffffffffffffffffffffffffffffffffffff021916908373ffffffffffffffffffffffffffffffffffffffff1602179055506020820151816001015560408201518160020160006101000a81548160ff021916908315150217905550505061016082015181600f01559050506128ea33600d546170e4565b601260003373ffffffffffffffffffffffffffffffffffffffff1673ffffffffffffffffffffffffffffffffffffffff16815260200190815260200160002081908060018154018082558091505060019003906000526020600020906010020160009091909190915060008201518160000155602082015181600101908051906020019061297992919061822c565b5060408201518160020160006101000a81548173ffffffffffffffffffffffffffffffffffffffff021916908373ffffffffffffffffffffffffffffffffffffffff16021790555060608201518160030160006101000a81548173ffffffffffffffffffffffffffffffffffffffff021916908373ffffffffffffffffffffffffffffffffffffffff16021790555060808201518160030160146101000a81548160ff02191690831515021790555060a0820151816004015560c0820151816005015560e0820151816006019080519060200190612a5892919061822c565b50610100820151816007019080519060200190612a7692919061822c565b5061012082015181600801600082015181600001556020820151816001019080519060200190612aa79291906182ba565b506040820151816002015560608201518160030155505061014082015181600c0160008201518160000160006101000a81548173ffffffffffffffffffffffffffffffffffffffff021916908373ffffffffffffffffffffffffffffffffffffffff1602179055506020820151816001015560408201518160020160006101000a81548160ff021916908315150217905550505061016082015181600f01555050601360003373ffffffffffffffffffffffffffffffffffffffff1673ffffffffffffffffffffffffffffffffffffffff168152602001908152602001600020819080600181540180825580915050600190039060005260206000209060100201600090919091909150600082015181600001556020820151816001019080519060200190612bd792919061822c565b5060408201518160020160006101000a81548173ffffffffffffffffffffffffffffffffffffffff021916908373ffffffffffffffffffffffffffffffffffffffff16021790555060608201518160030160006101000a81548173ffffffffffffffffffffffffffffffffffffffff021916908373ffffffffffffffffffffffffffffffffffffffff16021790555060808201518160030160146101000a81548160ff02191690831515021790555060a0820151816004015560c0820151816005015560e0820151816006019080519060200190612cb692919061822c565b50610100820151816007019080519060200190612cd492919061822c565b5061012082015181600801600082015181600001556020820151816001019080519060200190612d059291906182ba565b506040820151816002015560608201518160030155505061014082015181600c0160008201518160000160006101000a81548173ffffffffffffffffffffffffffffffffffffffff021916908373ffffffffffffffffffffffffffffffffffffffff1602179055506020820151816001015560408201518160020160006101000a81548160ff021916908315150217905550505061016082015181600f015550503373ffffffffffffffffffffffffffffffffffffffff16600d547ff1293630db6e536ecc0b1469747f708421d608196be846614f26d63a9b56b4a9874287604051612df39392919061937e565b60405180910390a3600d5491505095945050505050565b6000601160008481526020019081526020016000206040518061018001604052908160008201548152602001600182018054600181600116156101000203166002900480601f016020809104026020016040519081016040528092919081815260200182805460018160011615610100020316600290048015612ece5780601f10612ea357610100808354040283529160200191612ece565b820191906000526020600020905b815481529060010190602001808311612eb157829003601f168201915b505050505081526020016002820160009054906101000a900473ffffffffffffffffffffffffffffffffffffffff1673ffffffffffffffffffffffffffffffffffffffff1673ffffffffffffffffffffffffffffffffffffffff1681526020016003820160009054906101000a900473ffffffffffffffffffffffffffffffffffffffff1673ffffffffffffffffffffffffffffffffffffffff1673ffffffffffffffffffffffffffffffffffffffff1681526020016003820160149054906101000a900460ff161515151581526020016004820154815260200160058201548152602001600682018054600181600116156101000203166002900480601f01602080910402602001604051908101604052809291908181526020018280546001816001161561010002031660029004801561304b5780601f106130205761010080835404028352916020019161304b565b820191906000526020600020905b81548152906001019060200180831161302e57829003601f168201915b50505050508152602001600782018054600181600116156101000203166002900480601f0160208091040260200160405190810160405280929190818152602001828054600181600116156101000203166002900480156130ed5780601f106130c2576101008083540402835291602001916130ed565b820191906000526020600020905b8154815290600101906020018083116130d057829003601f168201915b5050505050815260200160088201604051806080016040529081600082015481526020016001820180548060200260200160405190810160405280929190818152602001828054801561319557602002820191906000526020600020905b8160009054906101000a900473ffffffffffffffffffffffffffffffffffffffff1673ffffffffffffffffffffffffffffffffffffffff168152602001906001019080831161314b575b50505050508152602001600282015481526020016003820154815250508152602001600c82016040518060600160405290816000820160009054906101000a900473ffffffffffffffffffffffffffffffffffffffff1673ffffffffffffffffffffffffffffffffffffffff1673ffffffffffffffffffffffffffffffffffffffff168152602001600182015481526020016002820160009054906101000a900460ff1615151515815250508152602001600f820154815250509050600080600090505b82610120015160200151518110156132cd5782610120015160200151818151811061328057fe5b602002602001015173ffffffffffffffffffffffffffffffffffffffff163373ffffffffffffffffffffffffffffffffffffffff1614156132c057600191505b8080600101915050613259565b50806132d857600080fd5b816101200151606001805180919060010181525083836101200151606001518461012001516040015102018161330a57fe5b048261012001516040018181525050816101200151606001805180919060010181525050816011600086815260200190815260200160002060008201518160000155602082015181600101908051906020019061336892919061822c565b5060408201518160020160006101000a81548173ffffffffffffffffffffffffffffffffffffffff021916908373ffffffffffffffffffffffffffffffffffffffff16021790555060608201518160030160006101000a81548173ffffffffffffffffffffffffffffffffffffffff021916908373ffffffffffffffffffffffffffffffffffffffff16021790555060808201518160030160146101000a81548160ff02191690831515021790555060a0820151816004015560c0820151816005015560e082015181600601908051906020019061344792919061822c565b5061010082015181600701908051906020019061346592919061822c565b50610120820151816008016000820151816000015560208201518160010190805190602001906134969291906182ba565b506040820151816002015560608201518160030155505061014082015181600c0160008201518160000160006101000a81548173ffffffffffffffffffffffffffffffffffffffff021916908373ffffffffffffffffffffffffffffffffffffffff1602179055506020820151816001015560408201518160020160006101000a81548160ff021916908315150217905550505061016082015181600f015590505050505050565b60006011600083815260200190815260200160002060030160146101000a81548160ff021916908315150217905550600060116000838152602001908152602001600020600501819055503373ffffffffffffffffffffffffffffffffffffffff16817f87d56c3b66c22271c2352d654ec8dfaf0bdb423b45e66c644c51a5e9dd38f5c5600080426040516135d5939291906191fd565b60405180910390a350565b6135e8615efa565b73ffffffffffffffffffffffffffffffffffffffff16600a60009054906101000a900473ffffffffffffffffffffffffffffffffffffffff1673ffffffffffffffffffffffffffffffffffffffff16146136aa576040517f08c379a00000000000000000000000000000000000000000000000000000000081526004018080602001828103825260208152602001807f4f776e61626c653a2063616c6c6572206973206e6f7420746865206f776e657281525060200191505060405180910390fd5b60003073ffffffffffffffffffffffffffffffffffffffff163190503373ffffffffffffffffffffffffffffffffffffffff166108fc829081150290604051600060405180830381858888f1935050505015801561370c573d6000803e3d6000fd5b5050565b6000806137278360026170f290919063ffffffff16565b50905080915050919050565b6000613740838334615fbb565b905092915050565b613750615efa565b73ffffffffffffffffffffffffffffffffffffffff16600a60009054906101000a900473ffffffffffffffffffffffffffffffffffffffff1673ffffffffffffffffffffffffffffffffffffffff1614613812576040517f08c379a00000000000000000000000000000000000000000000000000000000081526004018080602001828103825260208152602001807f4f776e61626c653a2063616c6c6572206973206e6f7420746865206f776e657281525060200191505060405180910390fd5b3373ffffffffffffffffffffffffffffffffffffffff166108fc600c549081150290604051600060405180830381858888f1935050505015801561385a573d6000803e3d6000fd5b50565b600061388d8260405180606001604052806029815260200161977260299139600261711e9092919063ffffffff16565b9050919050565b601360205281600052604060002081815481106138b057600080fd5b906000526020600020906010020160009150915050806000015490806001018054600181600116156101000203166002900480601f0160208091040260200160405190810160405280929190818152602001828054600181600116156101000203166002900480156139635780601f1061393857610100808354040283529160200191613963565b820191906000526020600020905b81548152906001019060200180831161394657829003601f168201915b5050505050908060020160009054906101000a900473ffffffffffffffffffffffffffffffffffffffff16908060030160009054906101000a900473ffffffffffffffffffffffffffffffffffffffff16908060030160149054906101000a900460ff1690806004015490806005015490806006018054600181600116156101000203166002900480601f016020809104026020016040519081016040528092919081815260200182805460018160011615610100020316600290048015613a6c5780601f10613a4157610100808354040283529160200191613a6c565b820191906000526020600020905b815481529060010190602001808311613a4f57829003601f168201915b505050505090806007018054600181600116156101000203166002900480601f016020809104026020016040519081016040528092919081815260200182805460018160011615610100020316600290048015613b0a5780601f10613adf57610100808354040283529160200191613b0a565b820191906000526020600020905b815481529060010190602001808311613aed57829003601f168201915b505050505090806008016040518060800160405290816000820154815260200160018201805480602002602001604051908101604052809291908181526020018280548015613bae57602002820191906000526020600020905b8160009054906101000a900473ffffffffffffffffffffffffffffffffffffffff1673ffffffffffffffffffffffffffffffffffffffff1681526020019060010190808311613b64575b50505050508152602001600282015481526020016003820154815250509080600c016040518060600160405290816000820160009054906101000a900473ffffffffffffffffffffffffffffffffffffffff1673ffffffffffffffffffffffffffffffffffffffff1673ffffffffffffffffffffffffffffffffffffffff168152602001600182015481526020016002820160009054906101000a900460ff1615151515815250509080600f015490508c565b606060098054600181600116156101000203166002900480601f016020809104026020016040519081016040528092919081815260200182805460018160011615610100020316600290048015613cf95780601f10613cce57610100808354040283529160200191613cf9565b820191906000526020600020905b815481529060010190602001808311613cdc57829003601f168201915b5050505050905090565b60008073ffffffffffffffffffffffffffffffffffffffff168273ffffffffffffffffffffffffffffffffffffffff161415613d8a576040517f08c379a000000000000000000000000000000000000000000000000000000000815260040180806020018281038252602a815260200180619748602a913960400191505060405180910390fd5b613dd1600160008473ffffffffffffffffffffffffffffffffffffffff1673ffffffffffffffffffffffffffffffffffffffff16815260200190815260200160002061713d565b9050919050565b613de0615efa565b73ffffffffffffffffffffffffffffffffffffffff16600a60009054906101000a900473ffffffffffffffffffffffffffffffffffffffff1673ffffffffffffffffffffffffffffffffffffffff1614613ea2576040517f08c379a00000000000000000000000000000000000000000000000000000000081526004018080602001828103825260208152602001807f4f776e61626c653a2063616c6c6572206973206e6f7420746865206f776e657281525060200191505060405180910390fd5b600073ffffffffffffffffffffffffffffffffffffffff16600a60009054906101000a900473ffffffffffffffffffffffffffffffffffffffff1673ffffffffffffffffffffffffffffffffffffffff167f8be0079c531659141344cd1fd0a4f28419497f9722a3daafe3b4186f6b6457e060405160405180910390a36000600a60006101000a81548173ffffffffffffffffffffffffffffffffffffffff021916908373ffffffffffffffffffffffffffffffffffffffff160217905550565b6011602052806000526040600020600091509050806000015490806001018054600181600116156101000203166002900480601f0160208091040260200160405190810160405280929190818152602001828054600181600116156101000203166002900480156140155780601f10613fea57610100808354040283529160200191614015565b820191906000526020600020905b815481529060010190602001808311613ff857829003601f168201915b5050505050908060020160009054906101000a900473ffffffffffffffffffffffffffffffffffffffff16908060030160009054906101000a900473ffffffffffffffffffffffffffffffffffffffff16908060030160149054906101000a900460ff1690806004015490806005015490806006018054600181600116156101000203166002900480601f01602080910402602001604051908101604052809291908181526020018280546001816001161561010002031660029004801561411e5780601f106140f35761010080835404028352916020019161411e565b820191906000526020600020905b81548152906001019060200180831161410157829003601f168201915b505050505090806007018054600181600116156101000203166002900480601f0160208091040260200160405190810160405280929190818152602001828054600181600116156101000203166002900480156141bc5780601f10614191576101008083540402835291602001916141bc565b820191906000526020600020905b81548152906001019060200180831161419f57829003601f168201915b50505050509080600801604051806080016040529081600082015481526020016001820180548060200260200160405190810160405280929190818152602001828054801561426057602002820191906000526020600020905b8160009054906101000a900473ffffffffffffffffffffffffffffffffffffffff1673ffffffffffffffffffffffffffffffffffffffff1681526020019060010190808311614216575b50505050508152602001600282015481526020016003820154815250509080600c016040518060600160405290816000820160009054906101000a900473ffffffffffffffffffffffffffffffffffffffff1673ffffffffffffffffffffffffffffffffffffffff1673ffffffffffffffffffffffffffffffffffffffff168152602001600182015481526020016002820160009054906101000a900460ff1615151515815250509080600f015490508c565b6000600a60009054906101000a900473ffffffffffffffffffffffffffffffffffffffff16905090565b606060078054600181600116156101000203166002900480601f0160208091040260200160405190810160405280929190818152602001828054600181600116156101000203166002900480156143d55780601f106143aa576101008083540402835291602001916143d5565b820191906000526020600020905b8154815290600101906020018083116143b857829003601f168201915b5050505050905090565b600d5481565b600f8054600181600116156101000203166002900480601f01602080910402602001604051908101604052809291908181526020018280546001816001161561010002031660029004801561447b5780601f106144505761010080835404028352916020019161447b565b820191906000526020600020905b81548152906001019060200180831161445e57829003601f168201915b505050505081565b61448b615efa565b73ffffffffffffffffffffffffffffffffffffffff168273ffffffffffffffffffffffffffffffffffffffff16141561452c576040517f08c379a00000000000000000000000000000000000000000000000000000000081526004018080602001828103825260198152602001807f4552433732313a20617070726f766520746f2063616c6c65720000000000000081525060200191505060405180910390fd5b8060056000614539615efa565b73ffffffffffffffffffffffffffffffffffffffff1673ffffffffffffffffffffffffffffffffffffffff16815260200190815260200160002060008473ffffffffffffffffffffffffffffffffffffffff1673ffffffffffffffffffffffffffffffffffffffff16815260200190815260200160002060006101000a81548160ff0219169083151502179055508173ffffffffffffffffffffffffffffffffffffffff166145e6615efa565b73ffffffffffffffffffffffffffffffffffffffff167f17307eab39ab6107e8899845ad3d59bd9653f200f220920489ca2b5937696c318360405180821515815260200191505060405180910390a35050565b600e600081548092919060010191905055508060106000600e5481526020019081526020016000208190555060005b8181101561468d5761467f86868686600e546125f8565b508080600101915050614668565b505050505050565b60106020528060005260406000206000915090505481565b80600b8190555050565b6146c86146c2615efa565b83616d93565b61471d576040517f08c379a00000000000000000000000000000000000000000000000000000000081526004018080602001828103825260318152602001806198836031913960400191505060405180910390fd5b61472984848484617152565b50505050565b606061473a82615edd565b61478f576040517f08c379a000000000000000000000000000000000000000000000000000000000815260040180806020018281038252602f815260200180619833602f913960400191505060405180910390fd5b6000600860008481526020019081526020016000208054600181600116156101000203166002900480601f0160208091040260200160405190810160405280929190818152602001828054600181600116156101000203166002900480156148385780601f1061480d57610100808354040283529160200191614838565b820191906000526020600020905b81548152906001019060200180831161481b57829003601f168201915b505050505090506000600980546001816001161561010002031660029004905014156148675780915050614a13565b6000815111156149405760098160405160200180838054600181600116156101000203166002900480156148d25780601f106148b05761010080835404028352918201916148d2565b820191906000526020600020905b8154815290600101906020018083116148be575b505082805190602001908083835b6020831061490357805182526020820191506020810190506020830392506148e0565b6001836020036101000a03801982511681845116808217855250505050505090500192505050604051602081830303815290604052915050614a13565b600961494b846171c4565b60405160200180838054600181600116156101000203166002900480156149a95780601f106149875761010080835404028352918201916149a9565b820191906000526020600020905b815481529060010190602001808311614995575b505082805190602001908083835b602083106149da57805182526020820191506020810190506020830392506149b7565b6001836020036101000a038019825116818451168082178552505050505050905001925050506040516020818303038152906040529150505b919050565b60126020528160005260406000208181548110614a3457600080fd5b906000526020600020906010020160009150915050806000015490806001018054600181600116156101000203166002900480601f016020809104026020016040519081016040528092919081815260200182805460018160011615610100020316600290048015614ae75780601f10614abc57610100808354040283529160200191614ae7565b820191906000526020600020905b815481529060010190602001808311614aca57829003601f168201915b5050505050908060020160009054906101000a900473ffffffffffffffffffffffffffffffffffffffff16908060030160009054906101000a900473ffffffffffffffffffffffffffffffffffffffff16908060030160149054906101000a900460ff1690806004015490806005015490806006018054600181600116156101000203166002900480601f016020809104026020016040519081016040528092919081815260200182805460018160011615610100020316600290048015614bf05780601f10614bc557610100808354040283529160200191614bf0565b820191906000526020600020905b815481529060010190602001808311614bd357829003601f168201915b505050505090806007018054600181600116156101000203166002900480601f016020809104026020016040519081016040528092919081815260200182805460018160011615610100020316600290048015614c8e5780601f10614c6357610100808354040283529160200191614c8e565b820191906000526020600020905b815481529060010190602001808311614c7157829003601f168201915b505050505090806008016040518060800160405290816000820154815260200160018201805480602002602001604051908101604052809291908181526020018280548015614d3257602002820191906000526020600020905b8160009054906101000a900473ffffffffffffffffffffffffffffffffffffffff1673ffffffffffffffffffffffffffffffffffffffff1681526020019060010190808311614ce8575b50505050508152602001600282015481526020016003820154815250509080600c016040518060600160405290816000820160009054906101000a900473ffffffffffffffffffffffffffffffffffffffff1673ffffffffffffffffffffffffffffffffffffffff1673ffffffffffffffffffffffffffffffffffffffff168152602001600182015481526020016002820160009054906101000a900460ff1615151515815250509080600f015490508c565b600c5481565b6000600560008473ffffffffffffffffffffffffffffffffffffffff1673ffffffffffffffffffffffffffffffffffffffff16815260200190815260200160002060008373ffffffffffffffffffffffffffffffffffffffff1673ffffffffffffffffffffffffffffffffffffffff16815260200190815260200160002060009054906101000a900460ff16905092915050565b614e87615efa565b73ffffffffffffffffffffffffffffffffffffffff16600a60009054906101000a900473ffffffffffffffffffffffffffffffffffffffff1673ffffffffffffffffffffffffffffffffffffffff1614614f49576040517f08c379a00000000000000000000000000000000000000000000000000000000081526004018080602001828103825260208152602001807f4f776e61626c653a2063616c6c6572206973206e6f7420746865206f776e657281525060200191505060405180910390fd5b600073ffffffffffffffffffffffffffffffffffffffff168173ffffffffffffffffffffffffffffffffffffffff161415614fcf576040517f08c379a00000000000000000000000000000000000000000000000000000000081526004018080602001828103825260268152602001806196746026913960400191505060405180910390fd5b8073ffffffffffffffffffffffffffffffffffffffff16600a60009054906101000a900473ffffffffffffffffffffffffffffffffffffffff1673ffffffffffffffffffffffffffffffffffffffff167f8be0079c531659141344cd1fd0a4f28419497f9722a3daafe3b4186f6b6457e060405160405180910390a380600a60006101000a81548173ffffffffffffffffffffffffffffffffffffffff021916908373ffffffffffffffffffffffffffffffffffffffff16021790555050565b600b5481565b6000601160008381526020019081526020016000206040518061018001604052908160008201548152602001600182018054600181600116156101000203166002900480601f0160208091040260200160405190810160405280929190818152602001828054600181600116156101000203166002900480156151595780601f1061512e57610100808354040283529160200191615159565b820191906000526020600020905b81548152906001019060200180831161513c57829003601f168201915b505050505081526020016002820160009054906101000a900473ffffffffffffffffffffffffffffffffffffffff1673ffffffffffffffffffffffffffffffffffffffff1673ffffffffffffffffffffffffffffffffffffffff1681526020016003820160009054906101000a900473ffffffffffffffffffffffffffffffffffffffff1673ffffffffffffffffffffffffffffffffffffffff1673ffffffffffffffffffffffffffffffffffffffff1681526020016003820160149054906101000a900460ff161515151581526020016004820154815260200160058201548152602001600682018054600181600116156101000203166002900480601f0160208091040260200160405190810160405280929190818152602001828054600181600116156101000203166002900480156152d65780601f106152ab576101008083540402835291602001916152d6565b820191906000526020600020905b8154815290600101906020018083116152b957829003601f168201915b50505050508152602001600782018054600181600116156101000203166002900480601f0160208091040260200160405190810160405280929190818152602001828054600181600116156101000203166002900480156153785780601f1061534d57610100808354040283529160200191615378565b820191906000526020600020905b81548152906001019060200180831161535b57829003601f168201915b5050505050815260200160088201604051806080016040529081600082015481526020016001820180548060200260200160405190810160405280929190818152602001828054801561542057602002820191906000526020600020905b8160009054906101000a900473ffffffffffffffffffffffffffffffffffffffff1673ffffffffffffffffffffffffffffffffffffffff16815260200190600101908083116153d6575b50505050508152602001600282015481526020016003820154815250508152602001600c82016040518060600160405290816000820160009054906101000a900473ffffffffffffffffffffffffffffffffffffffff1673ffffffffffffffffffffffffffffffffffffffff1673ffffffffffffffffffffffffffffffffffffffff168152602001600182015481526020016002820160009054906101000a900460ff1615151515815250508152602001600f8201548152505090503373ffffffffffffffffffffffffffffffffffffffff168161014001516000015173ffffffffffffffffffffffffffffffffffffffff161461551d57600080fd5b8061014001516000015173ffffffffffffffffffffffffffffffffffffffff166108fc826101400151602001519081150290604051600060405180830381858888f19350505050158015615575573d6000803e3d6000fd5b5060008161014001516000019073ffffffffffffffffffffffffffffffffffffffff16908173ffffffffffffffffffffffffffffffffffffffff16815250506000816101400151602001818152505080601160008481526020019081526020016000206000820151816000015560208201518160010190805190602001906155fe92919061822c565b5060408201518160020160006101000a81548173ffffffffffffffffffffffffffffffffffffffff021916908373ffffffffffffffffffffffffffffffffffffffff16021790555060608201518160030160006101000a81548173ffffffffffffffffffffffffffffffffffffffff021916908373ffffffffffffffffffffffffffffffffffffffff16021790555060808201518160030160146101000a81548160ff02191690831515021790555060a0820151816004015560c0820151816005015560e08201518160060190805190602001906156dd92919061822c565b506101008201518160070190805190602001906156fb92919061822c565b506101208201518160080160008201518160000155602082015181600101908051906020019061572c9291906182ba565b506040820151816002015560608201518160030155505061014082015181600c0160008201518160000160006101000a81548173ffffffffffffffffffffffffffffffffffffffff021916908373ffffffffffffffffffffffffffffffffffffffff1602179055506020820151816001015560408201518160020160006101000a81548160ff021916908315150217905550505061016082015181600f01559050503373ffffffffffffffffffffffffffffffffffffffff16827f6148d41e8dc5e4398599ae4cc7ac255e6fb97b2e57e9cec6f8e7a7562f0ea891600060024260405161581b939291906191c6565b60405180910390a35050565b6000601160008681526020019081526020016000206040518061018001604052908160008201548152602001600182018054600181600116156101000203166002900480601f0160208091040260200160405190810160405280929190818152602001828054600181600116156101000203166002900480156158eb5780601f106158c0576101008083540402835291602001916158eb565b820191906000526020600020905b8154815290600101906020018083116158ce57829003601f168201915b505050505081526020016002820160009054906101000a900473ffffffffffffffffffffffffffffffffffffffff1673ffffffffffffffffffffffffffffffffffffffff1673ffffffffffffffffffffffffffffffffffffffff1681526020016003820160009054906101000a900473ffffffffffffffffffffffffffffffffffffffff1673ffffffffffffffffffffffffffffffffffffffff1673ffffffffffffffffffffffffffffffffffffffff1681526020016003820160149054906101000a900460ff161515151581526020016004820154815260200160058201548152602001600682018054600181600116156101000203166002900480601f016020809104026020016040519081016040528092919081815260200182805460018160011615610100020316600290048015615a685780601f10615a3d57610100808354040283529160200191615a68565b820191906000526020600020905b815481529060010190602001808311615a4b57829003601f168201915b50505050508152602001600782018054600181600116156101000203166002900480601f016020809104026020016040519081016040528092919081815260200182805460018160011615610100020316600290048015615b0a5780601f10615adf57610100808354040283529160200191615b0a565b820191906000526020600020905b815481529060010190602001808311615aed57829003601f168201915b50505050508152602001600882016040518060800160405290816000820154815260200160018201805480602002602001604051908101604052809291908181526020018280548015615bb257602002820191906000526020600020905b8160009054906101000a900473ffffffffffffffffffffffffffffffffffffffff1673ffffffffffffffffffffffffffffffffffffffff1681526020019060010190808311615b68575b50505050508152602001600282015481526020016003820154815250508152602001600c82016040518060600160405290816000820160009054906101000a900473ffffffffffffffffffffffffffffffffffffffff1673ffffffffffffffffffffffffffffffffffffffff1673ffffffffffffffffffffffffffffffffffffffff168152602001600182015481526020016002820160009054906101000a900460ff1615151515815250508152602001600f820154815250509050838161012001516000018181525050828280806020026020016040519081016040528093929190818152602001838360200280828437600081840152601f19601f82011690508083019250505050505050816101200151602001819052508060116000878152602001908152602001600020600082015181600001556020820151816001019080519060200190615d0692919061822c565b5060408201518160020160006101000a81548173ffffffffffffffffffffffffffffffffffffffff021916908373ffffffffffffffffffffffffffffffffffffffff16021790555060608201518160030160006101000a81548173ffffffffffffffffffffffffffffffffffffffff021916908373ffffffffffffffffffffffffffffffffffffffff16021790555060808201518160030160146101000a81548160ff02191690831515021790555060a0820151816004015560c0820151816005015560e0820151816006019080519060200190615de592919061822c565b50610100820151816007019080519060200190615e0392919061822c565b5061012082015181600801600082015181600001556020820151816001019080519060200190615e349291906182ba565b506040820151816002015560608201518160030155505061014082015181600c0160008201518160000160006101000a81548173ffffffffffffffffffffffffffffffffffffffff021916908373ffffffffffffffffffffffffffffffffffffffff1602179055506020820151816001015560408201518160020160006101000a81548160ff021916908315150217905550505061016082015181600f01559050505050505050565b6000615ef382600261730b90919063ffffffff16565b9050919050565b600033905090565b816004600083815260200190815260200160002060006101000a81548173ffffffffffffffffffffffffffffffffffffffff021916908373ffffffffffffffffffffffffffffffffffffffff160217905550808273ffffffffffffffffffffffffffffffffffffffff16615f758361385d565b73ffffffffffffffffffffffffffffffffffffffff167f8c5be1e5ebec7d5bd14f71427d1e84f3dd0314c0f7b2291e5b200ac8c7c3b92560405160405180910390a45050565b600080601160008681526020019081526020016000206040518061018001604052908160008201548152602001600182018054600181600116156101000203166002900480601f0160208091040260200160405190810160405280929190818152602001828054600181600116156101000203166002900480156160805780601f1061605557610100808354040283529160200191616080565b820191906000526020600020905b81548152906001019060200180831161606357829003601f168201915b505050505081526020016002820160009054906101000a900473ffffffffffffffffffffffffffffffffffffffff1673ffffffffffffffffffffffffffffffffffffffff1673ffffffffffffffffffffffffffffffffffffffff1681526020016003820160009054906101000a900473ffffffffffffffffffffffffffffffffffffffff1673ffffffffffffffffffffffffffffffffffffffff1673ffffffffffffffffffffffffffffffffffffffff1681526020016003820160149054906101000a900460ff161515151581526020016004820154815260200160058201548152602001600682018054600181600116156101000203166002900480601f0160208091040260200160405190810160405280929190818152602001828054600181600116156101000203166002900480156161fd5780601f106161d2576101008083540402835291602001916161fd565b820191906000526020600020905b8154815290600101906020018083116161e057829003601f168201915b50505050508152602001600782018054600181600116156101000203166002900480601f01602080910402602001604051908101604052809291908181526020018280546001816001161561010002031660029004801561629f5780601f106162745761010080835404028352916020019161629f565b820191906000526020600020905b81548152906001019060200180831161628257829003601f168201915b5050505050815260200160088201604051806080016040529081600082015481526020016001820180548060200260200160405190810160405280929190818152602001828054801561634757602002820191906000526020600020905b8160009054906101000a900473ffffffffffffffffffffffffffffffffffffffff1673ffffffffffffffffffffffffffffffffffffffff16815260200190600101908083116162fd575b50505050508152602001600282015481526020016003820154815250508152602001600c82016040518060600160405290816000820160009054906101000a900473ffffffffffffffffffffffffffffffffffffffff1673ffffffffffffffffffffffffffffffffffffffff1673ffffffffffffffffffffffffffffffffffffffff168152602001600182015481526020016002820160009054906101000a900460ff1615151515815250508152602001600f820154815250509050806080015161641157600080fd5b8060a0015183101561642257600080fd5b8060c0015183101561643357600080fd5b6000806000836040015173ffffffffffffffffffffffffffffffffffffffff16846060015173ffffffffffffffffffffffffffffffffffffffff1614156165005761648e6164878560c00151600b54617325565b60646173ab565b925061649e8460c00151846173f5565b9150836040015173ffffffffffffffffffffffffffffffffffffffff166108fc839081150290604051600060405180830381858888f193505050501580156164ea573d6000803e3d6000fd5b5082600c600082825401925050819055506165ec565b61651a6165138560c00151600b54617325565b60646173ab565b92506165278360026173ab565b90506165378460c00151846173f5565b9150836040015173ffffffffffffffffffffffffffffffffffffffff166108fc829081150290604051600060405180830381858888f19350505050158015616583573d6000803e3d6000fd5b50836060015173ffffffffffffffffffffffffffffffffffffffff166108fc839081150290604051600060405180830381858888f193505050501580156165ce573d6000803e3d6000fd5b506165e56165dd8460026173ab565b600c5461743f565b600c819055505b6000808560600151905088866060019073ffffffffffffffffffffffffffffffffffffffff16908173ffffffffffffffffffffffffffffffffffffffff168152505060008660800190151590811515815250508560c001518660a001818152505060008660c0018181525050600086610140015160200181815250506000866101400151604001901515908115158152505085601160008c81526020019081526020016000206000820151816000015560208201518160010190805190602001906166b892919061822c565b5060408201518160020160006101000a81548173ffffffffffffffffffffffffffffffffffffffff021916908373ffffffffffffffffffffffffffffffffffffffff16021790555060608201518160030160006101000a81548173ffffffffffffffffffffffffffffffffffffffff021916908373ffffffffffffffffffffffffffffffffffffffff16021790555060808201518160030160146101000a81548160ff02191690831515021790555060a0820151816004015560c0820151816005015560e082015181600601908051906020019061679792919061822c565b506101008201518160070190805190602001906167b592919061822c565b50610120820151816008016000820151816000015560208201518160010190805190602001906167e69291906182ba565b506040820151816002015560608201518160030155505061014082015181600c0160008201518160000160006101000a81548173ffffffffffffffffffffffffffffffffffffffff021916908373ffffffffffffffffffffffffffffffffffffffff1602179055506020820151816001015560408201518160020160006101000a81548160ff021916908315150217905550505061016082015181600f01559050506000601360008373ffffffffffffffffffffffffffffffffffffffff1673ffffffffffffffffffffffffffffffffffffffff168152602001908152602001600020905060005b8180549050811015616910578181815481106168e657fe5b9060005260206000209060100201600001548c1415616903578093505b80806001019150506168ce565b5080838154811061691d57fe5b906000526020600020906010020160008082016000905560018201600061694491906183df565b6002820160006101000a81549073ffffffffffffffffffffffffffffffffffffffff02191690556003820160006101000a81549073ffffffffffffffffffffffffffffffffffffffff02191690556003820160146101000a81549060ff0219169055600482016000905560058201600090556006820160006169c691906183df565b6007820160006169d691906183df565b600882016000808201600090556001820160006169f39190618427565b600282016000905560038201600090555050600c8201600080820160006101000a81549073ffffffffffffffffffffffffffffffffffffffff021916905560018201600090556002820160006101000a81549060ff02191690555050600f820160009055505080601360008473ffffffffffffffffffffffffffffffffffffffff1673ffffffffffffffffffffffffffffffffffffffff168152602001908152602001600020908054616aa7929190618448565b50601360008b73ffffffffffffffffffffffffffffffffffffffff1673ffffffffffffffffffffffffffffffffffffffff168152602001908152602001600020879080600181540180825580915050600190039060005260206000209060100201600090919091909150600082015181600001556020820151816001019080519060200190616b3792919061822c565b5060408201518160020160006101000a81548173ffffffffffffffffffffffffffffffffffffffff021916908373ffffffffffffffffffffffffffffffffffffffff16021790555060608201518160030160006101000a81548173ffffffffffffffffffffffffffffffffffffffff021916908373ffffffffffffffffffffffffffffffffffffffff16021790555060808201518160030160146101000a81548160ff02191690831515021790555060a0820151816004015560c0820151816005015560e0820151816006019080519060200190616c1692919061822c565b50610100820151816007019080519060200190616c3492919061822c565b5061012082015181600801600082015181600001556020820151816001019080519060200190616c659291906182ba565b506040820151816002015560608201518160030155505061014082015181600c0160008201518160000160006101000a81548173ffffffffffffffffffffffffffffffffffffffff021916908373ffffffffffffffffffffffffffffffffffffffff1602179055506020820151816001015560408201518160020160006101000a81548160ff021916908315150217905550505061016082015181600f015550508173ffffffffffffffffffffffffffffffffffffffff168a73ffffffffffffffffffffffffffffffffffffffff168c7ffc353696a36a7d0e5b18ad79c70d47dd4552fe01858733b7f9de13f3b6934f8742604051616d649190619256565b60405180910390a460019750505050505050509392505050565b6000616d8c826000016174c7565b9050919050565b6000616d9e82615edd565b616df3576040517f08c379a000000000000000000000000000000000000000000000000000000000815260040180806020018281038252602c8152602001806196e4602c913960400191505060405180910390fd5b6000616dfe8361385d565b90508073ffffffffffffffffffffffffffffffffffffffff168473ffffffffffffffffffffffffffffffffffffffff161480616e6d57508373ffffffffffffffffffffffffffffffffffffffff16616e5584610b9f565b73ffffffffffffffffffffffffffffffffffffffff16145b80616e7e5750616e7d8185614deb565b5b91505092915050565b8273ffffffffffffffffffffffffffffffffffffffff16616ea78261385d565b73ffffffffffffffffffffffffffffffffffffffff1614616f13576040517f08c379a000000000000000000000000000000000000000000000000000000000815260040180806020018281038252602981526020018061980a6029913960400191505060405180910390fd5b600073ffffffffffffffffffffffffffffffffffffffff168273ffffffffffffffffffffffffffffffffffffffff161415616f99576040517f08c379a000000000000000000000000000000000000000000000000000000000815260040180806020018281038252602481526020018061969a6024913960400191505060405180910390fd5b616fa48383836174d8565b616faf600082615f02565b61700081600160008673ffffffffffffffffffffffffffffffffffffffff1673ffffffffffffffffffffffffffffffffffffffff1681526020019081526020016000206174dd90919063ffffffff16565b5061705281600160008573ffffffffffffffffffffffffffffffffffffffff1673ffffffffffffffffffffffffffffffffffffffff1681526020019081526020016000206174f790919063ffffffff16565b50617069818360026175119092919063ffffffff16565b50808273ffffffffffffffffffffffffffffffffffffffff168473ffffffffffffffffffffffffffffffffffffffff167fddf252ad1be2c89b69c2b068fc378daa952ba7f163c4a11628f55a4df523b3ef60405160405180910390a4505050565b60006170d98360000183617546565b60001c905092915050565b6170ee82826175c9565b5050565b60008060008061710586600001866177bd565b915091508160001c8160001c9350935050509250929050565b6000617131846000018460001b84617856565b60001c90509392505050565b600061714b8260000161794c565b9050919050565b61715d848484616e87565b6171698484848461795d565b6171be576040517f08c379a00000000000000000000000000000000000000000000000000000000081526004018080602001828103825260328152602001806196426032913960400191505060405180910390fd5b50505050565b6060600082141561720c576040518060400160405280600181526020017f30000000000000000000000000000000000000000000000000000000000000008152509050617306565b600082905060005b60008214617236578080600101915050600a828161722e57fe5b049150617214565b60008167ffffffffffffffff8111801561724f57600080fd5b506040519080825280601f01601f1916602001820160405280156172825781602001600182028036833780820191505090505b50905060006001830390508593505b600084146172fe57600a84816172a357fe5b0660300160f81b828280600190039350815181106172bd57fe5b60200101907effffffffffffffffffffffffffffffffffffffffffffffffffffffffffffff1916908160001a905350600a84816172f657fe5b049350617291565b819450505050505b919050565b600061731d836000018360001b617b76565b905092915050565b60008083141561733857600090506173a5565b600082840290508284828161734957fe5b04146173a0576040517f08c379a00000000000000000000000000000000000000000000000000000000081526004018080602001828103825260218152602001806197bd6021913960400191505060405180910390fd5b809150505b92915050565b60006173ed83836040518060400160405280601a81526020017f536166654d6174683a206469766973696f6e206279207a65726f000000000000815250617b99565b905092915050565b600061743783836040518060400160405280601e81526020017f536166654d6174683a207375627472616374696f6e206f766572666c6f770000815250617c5f565b905092915050565b6000808284019050838110156174bd576040517f08c379a000000000000000000000000000000000000000000000000000000000815260040180806020018281038252601b8152602001807f536166654d6174683a206164646974696f6e206f766572666c6f77000000000081525060200191505060405180910390fd5b8091505092915050565b600081600001805490509050919050565b505050565b60006174ef836000018360001b617d1f565b905092915050565b6000617509836000018360001b617e07565b905092915050565b600061753d846000018460001b8473ffffffffffffffffffffffffffffffffffffffff1660001b617e77565b90509392505050565b6000818360000180549050116175a7576040517f08c379a00000000000000000000000000000000000000000000000000000000081526004018080602001828103825260228152602001806196206022913960400191505060405180910390fd5b8260000182815481106175b657fe5b9060005260206000200154905092915050565b600073ffffffffffffffffffffffffffffffffffffffff168273ffffffffffffffffffffffffffffffffffffffff16141561766c576040517f08c379a00000000000000000000000000000000000000000000000000000000081526004018080602001828103825260208152602001807f4552433732313a206d696e7420746f20746865207a65726f206164647265737381525060200191505060405180910390fd5b61767581615edd565b156176e8576040517f08c379a000000000000000000000000000000000000000000000000000000000815260040180806020018281038252601c8152602001807f4552433732313a20746f6b656e20616c7265616479206d696e7465640000000081525060200191505060405180910390fd5b6176f4600083836174d8565b61774581600160008573ffffffffffffffffffffffffffffffffffffffff1673ffffffffffffffffffffffffffffffffffffffff1681526020019081526020016000206174f790919063ffffffff16565b5061775c818360026175119092919063ffffffff16565b50808273ffffffffffffffffffffffffffffffffffffffff16600073ffffffffffffffffffffffffffffffffffffffff167fddf252ad1be2c89b69c2b068fc378daa952ba7f163c4a11628f55a4df523b3ef60405160405180910390a45050565b6000808284600001805490501161781f576040517f08c379a000000000000000000000000000000000000000000000000000000000815260040180806020018281038252602281526020018061979b6022913960400191505060405180910390fd5b600084600001848154811061783057fe5b906000526020600020906002020190508060000154816001015492509250509250929050565b6000808460010160008581526020019081526020016000205490506000811415839061791d576040517f08c379a00000000000000000000000000000000000000000000000000000000081526004018080602001828103825283818151815260200191508051906020019080838360005b838110156178e25780820151818401526020810190506178c7565b50505050905090810190601f16801561790f5780820380516001836020036101000a031916815260200191505b509250505060405180910390fd5b5084600001600182038154811061793057fe5b9060005260206000209060020201600101549150509392505050565b600081600001805490509050919050565b600061797e8473ffffffffffffffffffffffffffffffffffffffff16617f53565b61798b5760019050617b6e565b6000617af563150b7a0260e01b6179a0615efa565b888787604051602401808573ffffffffffffffffffffffffffffffffffffffff1681526020018473ffffffffffffffffffffffffffffffffffffffff16815260200183815260200180602001828103825283818151815260200191508051906020019080838360005b83811015617a24578082015181840152602081019050617a09565b50505050905090810190601f168015617a515780820380516001836020036101000a031916815260200191505b5095505050505050604051602081830303815290604052907bffffffffffffffffffffffffffffffffffffffffffffffffffffffff19166020820180517bffffffffffffffffffffffffffffffffffffffffffffffffffffffff8381831617835250505050604051806060016040528060328152602001619642603291398773ffffffffffffffffffffffffffffffffffffffff16617f669092919063ffffffff16565b90506000818060200190516020811015617b0e57600080fd5b8101908080519060200190929190505050905063150b7a0260e01b7bffffffffffffffffffffffffffffffffffffffffffffffffffffffff1916817bffffffffffffffffffffffffffffffffffffffffffffffffffffffff191614925050505b949350505050565b600080836001016000848152602001908152602001600020541415905092915050565b60008083118290617c45576040517f08c379a00000000000000000000000000000000000000000000000000000000081526004018080602001828103825283818151815260200191508051906020019080838360005b83811015617c0a578082015181840152602081019050617bef565b50505050905090810190601f168015617c375780820380516001836020036101000a031916815260200191505b509250505060405180910390fd5b506000838581617c5157fe5b049050809150509392505050565b6000838311158290617d0c576040517f08c379a00000000000000000000000000000000000000000000000000000000081526004018080602001828103825283818151815260200191508051906020019080838360005b83811015617cd1578082015181840152602081019050617cb6565b50505050905090810190601f168015617cfe5780820380516001836020036101000a031916815260200191505b509250505060405180910390fd5b5060008385039050809150509392505050565b60008083600101600084815260200190815260200160002054905060008114617dfb5760006001820390506000600186600001805490500390506000866000018281548110617d6a57fe5b9060005260206000200154905080876000018481548110617d8757fe5b9060005260206000200181905550600183018760010160008381526020019081526020016000208190555086600001805480617dbf57fe5b60019003818190600052602060002001600090559055866001016000878152602001908152602001600020600090556001945050505050617e01565b60009150505b92915050565b6000617e138383617f7e565b617e6c578260000182908060018154018082558091505060019003906000526020600020016000909190919091505582600001805490508360010160008481526020019081526020016000208190555060019050617e71565b600090505b92915050565b6000808460010160008581526020019081526020016000205490506000811415617f1e57846000016040518060400160405280868152602001858152509080600181540180825580915050600190039060005260206000209060020201600090919091909150600082015181600001556020820151816001015550508460000180549050856001016000868152602001908152602001600020819055506001915050617f4c565b82856000016001830381548110617f3157fe5b90600052602060002090600202016001018190555060009150505b9392505050565b600080823b905060008111915050919050565b6060617f758484600085617fa1565b90509392505050565b600080836001016000848152602001908152602001600020541415905092915050565b6060823073ffffffffffffffffffffffffffffffffffffffff16311015618013576040517f08c379a00000000000000000000000000000000000000000000000000000000081526004018080602001828103825260268152602001806196be6026913960400191505060405180910390fd5b61801c85617f53565b61808e576040517f08c379a000000000000000000000000000000000000000000000000000000000815260040180806020018281038252601d8152602001807f416464726573733a2063616c6c20746f206e6f6e2d636f6e747261637400000081525060200191505060405180910390fd5b6000808673ffffffffffffffffffffffffffffffffffffffff1685876040518082805190602001908083835b602083106180dd57805182526020820191506020810190506020830392506180ba565b6001836020036101000a03801982511681845116808217855250505050505090500191505060006040518083038185875af1925050503d806000811461813f576040519150601f19603f3d011682016040523d82523d6000602084013e618144565b606091505b5091509150618154828286618160565b92505050949350505050565b6060831561817057829050618225565b6000835111156181835782518084602001fd5b816040517f08c379a00000000000000000000000000000000000000000000000000000000081526004018080602001828103825283818151815260200191508051906020019080838360005b838110156181ea5780820151818401526020810190506181cf565b50505050905090810190601f1680156182175780820380516001836020036101000a031916815260200191505b509250505060405180910390fd5b9392505050565b828054600181600116156101000203166002900490600052602060002090601f01602090048101928261826257600085556182a9565b82601f1061827b57805160ff19168380011785556182a9565b828001600101855582156182a9579182015b828111156182a857825182559160200191906001019061828d565b5b5090506182b69190618722565b5090565b828054828255906000526020600020908101928215618333579160200282015b828111156183325782518260006101000a81548173ffffffffffffffffffffffffffffffffffffffff021916908373ffffffffffffffffffffffffffffffffffffffff160217905550916020019190600101906182da565b5b5090506183409190618722565b5090565b6040518061018001604052806000815260200160608152602001600073ffffffffffffffffffffffffffffffffffffffff168152602001600073ffffffffffffffffffffffffffffffffffffffff168152602001600015158152602001600081526020016000815260200160608152602001606081526020016183c561873f565b81526020016183d2618767565b8152602001600081525090565b50805460018160011615610100020316600290046000825580601f106184055750618424565b601f0160209004906000526020600020908101906184239190618722565b5b50565b50805460008255906000526020600020908101906184459190618722565b50565b8280548282559060005260206000209060100281019282156187115760005260206000209160100282015b8281111561871057828260008201548160000155600182018160010190805460018160011615610100020316600290046184ae9291906187a0565b506002820160009054906101000a900473ffffffffffffffffffffffffffffffffffffffff168160020160006101000a81548173ffffffffffffffffffffffffffffffffffffffff021916908373ffffffffffffffffffffffffffffffffffffffff1602179055506003820160009054906101000a900473ffffffffffffffffffffffffffffffffffffffff168160030160006101000a81548173ffffffffffffffffffffffffffffffffffffffff021916908373ffffffffffffffffffffffffffffffffffffffff1602179055506003820160149054906101000a900460ff168160030160146101000a81548160ff0219169083151502179055506004820154816004015560058201548160050155600682018160060190805460018160011615610100020316600290046185e59291906187a0565b506007820181600701908054600181600116156101000203166002900461860d9291906187a0565b506008820181600801600082015481600001556001820181600101908054618636929190618835565b5060028201548160020155600382015481600301555050600c820181600c016000820160009054906101000a900473ffffffffffffffffffffffffffffffffffffffff168160000160006101000a81548173ffffffffffffffffffffffffffffffffffffffff021916908373ffffffffffffffffffffffffffffffffffffffff160217905550600182015481600101556002820160009054906101000a900460ff168160020160006101000a81548160ff0219169083151502179055505050600f82015481600f0155505091601001919060100190618473565b5b50905061871e9190618887565b5090565b5b8082111561873b576000816000905550600101618723565b5090565b6040518060800160405280600081526020016060815260200160008152602001600081525090565b6040518060600160405280600073ffffffffffffffffffffffffffffffffffffffff168152602001600081526020016000151581525090565b828054600181600116156101000203166002900490600052602060002090601f0160209004810192826187d65760008555618824565b82601f106187e75780548555618824565b8280016001018555821561882457600052602060002091601f016020900482015b82811115618823578254825591600101919060010190618808565b5b5090506188319190618722565b5090565b8280548282559060005260206000209081019282156188765760005260206000209182015b8281111561887557825482559160010191906001019061885a565b5b5090506188839190618722565b5090565b5b808211156189c5576000808201600090556001820160006188a991906183df565b6002820160006101000a81549073ffffffffffffffffffffffffffffffffffffffff02191690556003820160006101000a81549073ffffffffffffffffffffffffffffffffffffffff02191690556003820160146101000a81549060ff02191690556004820160009055600582016000905560068201600061892b91906183df565b60078201600061893b91906183df565b600882016000808201600090556001820160006189589190618427565b600282016000905560038201600090555050600c8201600080820160006101000a81549073ffffffffffffffffffffffffffffffffffffffff021916905560018201600090556002820160006101000a81549060ff02191690555050600f82016000905550601001618888565b5090565b60006189dc6189d7846193e6565b6193b5565b9050828152602081018484840111156189f457600080fd5b6189ff848285619557565b509392505050565b6000618a1a618a1584619416565b6193b5565b905082815260208101848484011115618a3257600080fd5b618a3d848285619557565b509392505050565b600081359050618a54816195ac565b92915050565b600081359050618a69816195c3565b92915050565b60008083601f840112618a8157600080fd5b8235905067ffffffffffffffff811115618a9a57600080fd5b602083019150836020820283011115618ab257600080fd5b9250929050565b600081359050618ac8816195da565b92915050565b600081359050618add816195f1565b92915050565b600082601f830112618af457600080fd5b8135618b048482602086016189c9565b91505092915050565b600082601f830112618b1e57600080fd5b8135618b2e848260208601618a07565b91505092915050565b600081359050618b4681619608565b92915050565b600060208284031215618b5e57600080fd5b6000618b6c84828501618a45565b91505092915050565b60008060408385031215618b8857600080fd5b6000618b9685828601618a45565b9250506020618ba785828601618a45565b9150509250929050565b600080600060608486031215618bc657600080fd5b6000618bd486828701618a45565b9350506020618be586828701618a45565b9250506040618bf686828701618b37565b9150509250925092565b60008060008060808587031215618c1657600080fd5b6000618c2487828801618a45565b9450506020618c3587828801618a45565b9350506040618c4687828801618b37565b925050606085013567ffffffffffffffff811115618c6357600080fd5b618c6f87828801618ae3565b91505092959194509250565b60008060408385031215618c8e57600080fd5b6000618c9c85828601618a45565b9250506020618cad85828601618ab9565b9150509250929050565b60008060408385031215618cca57600080fd5b6000618cd885828601618a45565b9250506020618ce985828601618b37565b9150509250929050565b600060208284031215618d0557600080fd5b6000618d1384828501618ace565b91505092915050565b600060208284031215618d2e57600080fd5b600082013567ffffffffffffffff811115618d4857600080fd5b618d5484828501618b0d565b91505092915050565b600080600080600060a08688031215618d7557600080fd5b600086013567ffffffffffffffff811115618d8f57600080fd5b618d9b88828901618b0d565b955050602086013567ffffffffffffffff811115618db857600080fd5b618dc488828901618b0d565b9450506040618dd588828901618b37565b935050606086013567ffffffffffffffff811115618df257600080fd5b618dfe88828901618b0d565b9250506080618e0f88828901618b37565b9150509295509295909350565b600060208284031215618e2e57600080fd5b6000618e3c84828501618b37565b91505092915050565b60008060408385031215618e5857600080fd5b6000618e6685828601618b37565b9250506020618e7785828601618a5a565b9150509250929050565b60008060408385031215618e9457600080fd5b6000618ea285828601618b37565b9250506020618eb385828601618b37565b9150509250929050565b60008060008060608587031215618ed357600080fd5b6000618ee187828801618b37565b9450506020618ef287828801618b37565b935050604085013567ffffffffffffffff811115618f0f57600080fd5b618f1b87828801618a6f565b925092505092959194509250565b6000618f358383618f5f565b60208301905092915050565b618f4a816194ad565b82525050565b618f59816194ad565b82525050565b618f688161949b565b82525050565b618f778161949b565b82525050565b6000618f8882619456565b618f928185619479565b9350618f9d83619446565b8060005b83811015618fce578151618fb58882618f29565b9750618fc08361946c565b925050600181019050618fa1565b5085935050505092915050565b618fe4816194bf565b82525050565b618ff3816194bf565b82525050565b61900281619521565b82525050565b61901181619533565b82525050565b61902081619545565b82525050565b600061903182619461565b61903b818561948a565b935061904b818560208601619566565b6190548161959b565b840191505092915050565b6060820160008201516190756000850182618f41565b5060208201516190886020850182619104565b50604082015161909b6040850182618fdb565b50505050565b60006080830160008301516190b96000860182619104565b50602083015184820360208601526190d18282618f7d565b91505060408301516190e66040860182619104565b5060608301516190f96060860182619104565b508091505092915050565b61910d81619517565b82525050565b61911c81619517565b82525050565b60006020820190506191376000830184618f6e565b92915050565b60006020820190506191526000830184618fea565b92915050565b600060608201905061916d6000830186618fea565b61917a6020830185618ff9565b6191876040830184619113565b949350505050565b60006060820190506191a46000830186618fea565b6191b16020830185619008565b6191be6040830184619113565b949350505050565b60006060820190506191db6000830186618fea565b6191e86020830185619017565b6191f56040830184619113565b949350505050565b60006060820190506192126000830186618ff9565b61921f6020830185618fea565b61922c6040830184619113565b949350505050565b6000602082019050818103600083015261924e8184619026565b905092915050565b600060208201905061926b6000830184619113565b92915050565b60006060820190506192866000830186619113565b6192936020830185618fea565b6192a06040830184619113565b949350505050565b60006101c0820190506192be600083018f619113565b81810360208301526192d0818e619026565b90506192df604083018d618f50565b6192ec606083018c618f50565b6192f9608083018b618fea565b61930660a083018a619113565b61931360c0830189619113565b81810360e08301526193258188619026565b905081810361010083015261933a8187619026565b905081810361012083015261934f81866190a1565b905061935f61014083018561905f565b61936d6101a0830184619113565b9d9c50505050505050505050505050565b60006060820190506193936000830186619113565b6193a06020830185619113565b6193ad6040830184619113565b949350505050565b6000604051905081810181811067ffffffffffffffff821117156193dc576193db619599565b5b8060405250919050565b600067ffffffffffffffff82111561940157619400619599565b5b601f19601f8301169050602081019050919050565b600067ffffffffffffffff82111561943157619430619599565b5b601f19601f8301169050602081019050919050565b6000819050602082019050919050565b600081519050919050565b600081519050919050565b6000602082019050919050565b600082825260208201905092915050565b600082825260208201905092915050565b60006194a6826194f7565b9050919050565b60006194b8826194f7565b9050919050565b60008115159050919050565b60007fffffffff0000000000000000000000000000000000000000000000000000000082169050919050565b600073ffffffffffffffffffffffffffffffffffffffff82169050919050565b6000819050919050565b600061952c82619517565b9050919050565b600061953e82619517565b9050919050565b600061955082619517565b9050919050565b82818337600083830152505050565b60005b83811015619584578082015181840152602081019050619569565b83811115619593576000848401525b50505050565bfe5b6000601f19601f8301169050919050565b6195b58161949b565b81146195c057600080fd5b50565b6195cc816194ad565b81146195d757600080fd5b50565b6195e3816194bf565b81146195ee57600080fd5b50565b6195fa816194cb565b811461960557600080fd5b50565b61961181619517565b811461961c57600080fd5b5056fe456e756d657261626c655365743a20696e646578206f7574206f6620626f756e64734552433732313a207472616e7366657220746f206e6f6e20455243373231526563656976657220696d706c656d656e7465724f776e61626c653a206e6577206f776e657220697320746865207a65726f20616464726573734552433732313a207472616e7366657220746f20746865207a65726f2061646472657373416464726573733a20696e73756666696369656e742062616c616e636520666f722063616c6c4552433732313a206f70657261746f7220717565727920666f72206e6f6e6578697374656e7420746f6b656e4552433732313a20617070726f76652063616c6c6572206973206e6f74206f776e6572206e6f7220617070726f76656420666f7220616c6c4552433732313a2062616c616e636520717565727920666f7220746865207a65726f20616464726573734552433732313a206f776e657220717565727920666f72206e6f6e6578697374656e7420746f6b656e456e756d657261626c654d61703a20696e646578206f7574206f6620626f756e6473536166654d6174683a206d756c7469706c69636174696f6e206f766572666c6f774552433732313a20617070726f76656420717565727920666f72206e6f6e6578697374656e7420746f6b656e4552433732313a207472616e73666572206f6620746f6b656e2074686174206973206e6f74206f776e4552433732314d657461646174613a2055524920717565727920666f72206e6f6e6578697374656e7420746f6b656e4552433732313a20617070726f76616c20746f2063757272656e74206f776e65724552433732313a207472616e736665722063616c6c6572206973206e6f74206f776e6572206e6f7220617070726f766564a264697066735822122026905204f30cb83e365fb6afb838c0c4389aad80a6d69a40466cad8cbe2a218d64736f6c63430007060033",
  "immutableReferences": {},
  "source": "        // pragma solidity ^0.6.0;\r\n        pragma solidity >=0.6.0; \r\n        pragma experimental ABIEncoderV2;\r\n        \r\n        //import \"https://github.com/kole-swapnil/openzepkole/token/ERC721/ERC721.sol\";\r\n        import \"@openzeppelin/contracts/token/ERC721/ERC721.sol\"; \r\n        //import \"https://github.com/kole-swapnil/openzepkole/access/Ownable.sol\";\r\n        import \"@openzeppelin/contracts/access/Ownable.sol\"; \r\n        \r\n        \r\n        contract Cryptoart is ERC721,Ownable{\r\n            uint256 public percentageCut;\r\n            uint256 public totalbal = 0;\r\n            uint256 public tokenCount = 0;\r\n            uint public batchcounter = 0;\r\n            string public metaUrl; \r\n            \r\n            \r\n            constructor(uint _percentageCut,string memory _metaurl) public ERC721(\"SuperArt\", \"SUPERART\"){\r\n                percentageCut = _percentageCut;\r\n                metaUrl = _metaurl;\r\n            }\r\n            \r\n            event tokencreated(uint indexed tokenId,address indexed tokenCreator,uint tokenPrice,uint times,uint batchId);\r\n            event tokenbought(uint indexed tokenId,address indexed newowner,address indexed seller,uint times);\r\n            event tokenputforsale(uint indexed tokenId,address indexed seller,uint sellPrice,bool isListed,uint times);\r\n            event tokenbid(uint indexed tokenId,address indexed stcl,bool isBid,uint close,uint times);\r\n            struct Panel{\r\n                    uint memcount;\r\n                    address[] allmem;\r\n                    uint panelprice;\r\n                    uint countcritic;\r\n            }\r\n            struct Auction{\r\n                address payable bidder;\r\n                uint bidprice;\r\n                bool isBidding;\r\n            }\r\n            struct ArtToken{\r\n                uint tokenIdentifier;\r\n                string tokenHash;\r\n                address payable tokenCreator;\r\n                address payable tokenOwner;\r\n                bool isSelling;\r\n                uint tokenPrice;\r\n                uint tokenSellPrice;\r\n                string imgurl;\r\n                string tokenTitle;\r\n               // uint tier;\r\n                Panel panel;\r\n                Auction auction;\r\n                uint batchId;\r\n                \r\n            }\r\n            mapping(uint => uint)public batches;\r\n            mapping(uint => ArtToken) public Arts;\r\n            mapping(address => ArtToken[]) public tokensByCreator;\r\n            mapping(address => ArtToken[]) public tokensByOwner; \r\n            \r\n            function setPercentCut(uint _percent) public {\r\n                percentageCut = _percent;\r\n            }\r\n            function setMetaUrl(string memory _url) public {\r\n                metaUrl = _url;\r\n            }\r\n            \r\n            function createToken(\r\n                address buyer,\r\n                uint256 tokenId\r\n            ) private {\r\n                _mint(buyer, tokenId);\r\n            }\r\n            \r\n            function batchCreator(string memory _tokenHash,string memory _tokenTitle,uint _tokenPrice,string memory _imgurl,uint _nos)public{\r\n                \r\n                    batchcounter++;\r\n                    batches[batchcounter] = _nos;\r\n                    for(uint i=0;i<_nos;i++){\r\n                    create(_tokenHash,_tokenTitle,_tokenPrice,_imgurl,batchcounter);\r\n                    }\r\n                        \r\n                \r\n          \r\n            }\r\n           function create(string memory _tokenHash,string memory _tokenTitle,uint _tokenPrice,string memory _imgurl,uint _batchid)public returns(uint){\r\n                tokenCount++;\r\n                ArtToken memory y;\r\n                y.tokenIdentifier = tokenCount;\r\n                y.tokenHash = _tokenHash;\r\n                y.tokenCreator = msg.sender;\r\n                y.tokenOwner = msg.sender;\r\n                y.isSelling = false;\r\n                y.tokenPrice = _tokenPrice;\r\n                y.imgurl = _imgurl;\r\n                y.tokenTitle = _tokenTitle;\r\n                //y.tier = _tier;\r\n                y.batchId = _batchid;\r\n                Arts[tokenCount] = y;\r\n                createToken(msg.sender,tokenCount);\r\n                tokensByCreator[msg.sender].push(y);\r\n                tokensByOwner[msg.sender].push(y);\r\n                emit tokencreated(tokenCount,msg.sender,_tokenPrice,block.timestamp,_batchid);\r\n                return tokenCount;\r\n            }\r\n\r\n            function addtoGallery(uint _tokenId,uint _memcount,address[] calldata _allmem) public {\r\n                ArtToken memory y = Arts[_tokenId];\r\n                y.panel.memcount = _memcount;\r\n                y.panel.allmem = _allmem;\r\n                Arts[_tokenId] = y;\r\n                \r\n            }\r\n            \r\n            function addCriticPrice(uint _tokenId,uint _criticprice) public {\r\n                ArtToken memory y = Arts[_tokenId];\r\n                bool exists;\r\n                for(uint i = 0;i<y.panel.allmem.length;i++){\r\n                    if(msg.sender == y.panel.allmem[i]){\r\n                        exists = true;    \r\n                    }\r\n                    \r\n                }\r\n                \r\n                require(exists);\r\n                \r\n                y.panel.panelprice = ((y.panel.panelprice*y.panel.countcritic) + _criticprice)/y.panel.countcritic++;\r\n                y.panel.countcritic++;\r\n                Arts[_tokenId] = y;\r\n                \r\n            }\r\n            \r\n            function putForSale(uint256 _tokenId,uint _sellprice) public{\r\n                Arts[_tokenId].isSelling = true;\r\n                Arts[_tokenId].tokenSellPrice = _sellprice;\r\n                emit tokenputforsale(_tokenId,msg.sender,_sellprice,true,block.timestamp);\r\n                \r\n            }\r\n            function deSale(uint256 _tokenId) public{\r\n                Arts[_tokenId].isSelling = false;\r\n                Arts[_tokenId].tokenSellPrice = 0;\r\n                emit tokenputforsale(_tokenId,msg.sender,0,false,block.timestamp);\r\n            }\r\n            \r\n            function giftToken(uint256 _tokenId,address payable addr) public payable returns(bool){\r\n                return _buyToken(_tokenId,addr,msg.value);\r\n            }\r\n            \r\n            function buyToken(uint256 _tokenId) public payable returns(bool){\r\n                return _buyToken(_tokenId,msg.sender,msg.value);\r\n            }\r\n            \r\n            \r\n            function _buyToken(uint256 _tokenId,address payable addr,uint256 val) private returns(bool){\r\n               ArtToken memory y = Arts[_tokenId];\r\n               require(y.isSelling);\r\n               require(val >= y.tokenPrice);\r\n               require(val >= y.tokenSellPrice);\r\n               uint fee;\r\n               uint priceAfterFee;\r\n               uint creatorfee;\r\n               if(y.tokenOwner == y.tokenCreator){\r\n                    fee = SafeMath.div(\r\n                    SafeMath.mul(y.tokenSellPrice, percentageCut),\r\n                    100\r\n                );\r\n                priceAfterFee = SafeMath.sub(y.tokenSellPrice, fee);\r\n                y.tokenCreator.transfer(priceAfterFee);\r\n                totalbal += fee;\r\n                   \r\n               }\r\n               else{\r\n                   fee = SafeMath.div(\r\n                    SafeMath.mul(y.tokenSellPrice,percentageCut),\r\n                    100\r\n                );\r\n                \r\n                creatorfee = SafeMath.div(\r\n                    fee,2\r\n                );\r\n                \r\n                priceAfterFee = SafeMath.sub(y.tokenSellPrice, fee);\r\n                   y.tokenCreator.transfer(creatorfee);\r\n                   y.tokenOwner.transfer(priceAfterFee);\r\n                   totalbal = SafeMath.add(SafeMath.div(\r\n                    fee,2),totalbal);\r\n               }\r\n               uint index;\r\n               address seller = y.tokenOwner;\r\n               y.tokenOwner = addr;\r\n               y.isSelling = false;\r\n               y.tokenPrice = y.tokenSellPrice;\r\n               y.tokenSellPrice = 0;\r\n               y.auction.bidprice = 0;\r\n               y.auction.isBidding = false;\r\n               Arts[_tokenId] = y;\r\n               ArtToken[] storage z = tokensByOwner[seller];\r\n               for(uint i = 0;i < z.length;i++){\r\n                   if(_tokenId == z[i].tokenIdentifier){\r\n                       index = i;\r\n                   }     \r\n               }\r\n               delete z[index];\r\n               tokensByOwner[seller] = z;\r\n               tokensByOwner[addr].push(y);\r\n                \r\n               emit tokenbought(_tokenId,addr,seller,block.timestamp);\r\n                return true;\r\n            }\r\n            \r\n            function startbid(uint _tokenId) public {\r\n                Arts[_tokenId].auction.isBidding = true;    \r\n                emit tokenbid(_tokenId,msg.sender,true,0,block.timestamp); \r\n            }\r\n            \r\n            function addBid(uint _tokenId) public payable{\r\n                ArtToken memory y = Arts[_tokenId];\r\n                require(msg.value>y.auction.bidprice);\r\n                if(y.auction.bidder == address(0x0)){\r\n                    y.auction.bidder = msg.sender;\r\n                    y.auction.bidprice = msg.value;\r\n                    y.auction.isBidding = true;\r\n                    emit tokenbid(_tokenId,msg.sender,true,0,block.timestamp);\r\n                    \r\n                }\r\n                else{\r\n                    (y.auction.bidder).transfer(y.auction.bidprice);\r\n                    y.auction.bidder = msg.sender;\r\n                    y.auction.bidprice = msg.value;\r\n                }\r\n                Arts[_tokenId] = y;\r\n                \r\n            }\r\n            \r\n            function closeBidOwner(uint _tokenId) public {\r\n                ArtToken memory y = Arts[_tokenId];\r\n                require(y.tokenOwner == msg.sender || y.tokenOwner == owner());\r\n                y.tokenSellPrice = y.auction.bidprice;\r\n                Arts[_tokenId] = y;\r\n                _buyToken(_tokenId,y.auction.bidder,y.auction.bidprice);\r\n                ArtToken memory z = Arts[_tokenId];\r\n                z.auction.isBidding = false;\r\n                z.auction.bidder = address(0x0);\r\n                z.auction.bidprice = 0;\r\n                Arts[_tokenId] = z;\r\n                emit tokenbid(_tokenId,msg.sender,false,1,block.timestamp);\r\n            }\r\n            \r\n            function closeBid(uint _tokenId)public{\r\n                 ArtToken memory z = Arts[_tokenId];\r\n                 require(z.auction.bidder == msg.sender);\r\n                 z.auction.bidder.transfer(z.auction.bidprice);\r\n                 z.auction.bidder = address(0x0);\r\n                 z.auction.bidprice = 0;\r\n                 Arts[_tokenId] = z;\r\n                 emit tokenbid(_tokenId,msg.sender,false,2,block.timestamp);\r\n            }\r\n            /**\r\n            function tokenURI(uint256 tokenId) public view override returns (string memory) {\r\n                string memory x = string(abi.encodePacked(metaUrl,tokenId));\r\n                return x;\r\n            }\r\n             */\r\n            \r\n            \r\n            \r\n            function withdrawBalance() public payable onlyOwner() {\r\n                (msg.sender).transfer(totalbal);\r\n            }\r\n            \r\n            function FinalWithdrawBal() public payable onlyOwner() {\r\n                uint256 balance = address(this).balance;\r\n                (msg.sender).transfer(balance);\r\n            }\r\n        \r\n           \r\n        }",
  "sourcePath": "E:/GithubInternship/Crypto/contracts/CryptoArt.sol",
  "compiler": {
    "name": "solc",
    "version": "0.7.6+commit.7338295f.Emscripten.clang"
  },
  "schemaVersion": "3.3.3",
  "updatedAt": "2021-01-09T15:30:56.070Z",
  "devdoc": {
    "kind": "dev",
    "methods": {
      "approve(address,uint256)": {
        "details": "See {IERC721-approve}."
      },
      "balanceOf(address)": {
        "details": "See {IERC721-balanceOf}."
      },
      "baseURI()": {
        "details": "Returns the base URI set via {_setBaseURI}. This will be automatically added as a prefix in {tokenURI} to each token's URI, or to the token ID if no specific URI is set for that token ID."
      },
      "getApproved(uint256)": {
        "details": "See {IERC721-getApproved}."
      },
      "isApprovedForAll(address,address)": {
        "details": "See {IERC721-isApprovedForAll}."
      },
      "name()": {
        "details": "See {IERC721Metadata-name}."
      },
      "owner()": {
        "details": "Returns the address of the current owner."
      },
      "ownerOf(uint256)": {
        "details": "See {IERC721-ownerOf}."
      },
      "renounceOwnership()": {
        "details": "Leaves the contract without owner. It will not be possible to call `onlyOwner` functions anymore. Can only be called by the current owner. NOTE: Renouncing ownership will leave the contract without an owner, thereby removing any functionality that is only available to the owner."
      },
      "safeTransferFrom(address,address,uint256)": {
        "details": "See {IERC721-safeTransferFrom}."
      },
      "safeTransferFrom(address,address,uint256,bytes)": {
        "details": "See {IERC721-safeTransferFrom}."
      },
      "setApprovalForAll(address,bool)": {
        "details": "See {IERC721-setApprovalForAll}."
      },
      "supportsInterface(bytes4)": {
        "details": "See {IERC165-supportsInterface}. Time complexity O(1), guaranteed to always use less than 30 000 gas."
      },
      "symbol()": {
        "details": "See {IERC721Metadata-symbol}."
      },
      "tokenByIndex(uint256)": {
        "details": "See {IERC721Enumerable-tokenByIndex}."
      },
      "tokenOfOwnerByIndex(address,uint256)": {
        "details": "See {IERC721Enumerable-tokenOfOwnerByIndex}."
      },
      "tokenURI(uint256)": {
        "details": "See {IERC721Metadata-tokenURI}."
      },
      "totalSupply()": {
        "details": "See {IERC721Enumerable-totalSupply}."
      },
      "transferFrom(address,address,uint256)": {
        "details": "See {IERC721-transferFrom}."
      },
      "transferOwnership(address)": {
        "details": "Transfers ownership of the contract to a new account (`newOwner`). Can only be called by the current owner."
      }
    },
    "version": 1
  },
  "userdoc": {
    "kind": "user",
    "methods": {
      "withdrawBalance()": {
        "notice": "function tokenURI(uint256 tokenId) public view override returns (string memory) { string memory x = string(abi.encodePacked(metaUrl,tokenId)); return x; }"
      }
    },
    "version": 1
  }
}